:020000040800F2
:10000000480D0020B503000821720008E96C0008C3
:1000100019720008C9040008397D000800000000BA
:10002000000000000000000000000000F977000858
:100030001105000800000000A17200080178000806
:10004000D3030008D3030008D3030008D303000838
:10005000D3030008D3030008D3030008D303000828
:10006000D3030008D3030008D3030008D104000819
:10007000E1040008F104000801050008D3030008AA
:10008000D3030008D3030008D3030008D3030008F8
:10009000D3030008D3030008D3030008D3030008E8
:1000A000D3030008D3030008D3030008D3030008D8
:1000B000D3030008D3030008D3030008D3030008C8
:1000C000D3030008D3030008D3030008A176000877
:1000D000D3030008297D0008D3030008D3030008D8
:1000E000D3030008D3030008D3030008D303000898
:1000F000D3030008D3030008D3030008D303000888
:10010000D3030008D3030008D3030008D303000877
:10011000D3030008D3030008697A0008D30300085A
:10012000D3030008D3030008D3030008D303000857
:10013000D30300080000000000000000D303000803
:10014000D3030008D3030008D3030008D303000837
:10015000D3030008D3030008D3030008D303000827
:10016000D3030008D3030008D3030008D303000817
:10017000D3030008D3030008D3030008D303000807
:10018000D3030008D3030008D3030008D3030008F7
:10019000D3030008D3030008D3030008D3030008E7
:1001A000F16C0008D3030008D3030008D303000850
:1001B000D3030008D3030008D3030008D3030008C7
:1001C000D3030008D3030008000000000000000073
:1001D0000000000000000000D30300080000000041
:1001E000000000000000000000000000000000000F
:1001F0000000000000000000D3030008D303000843
:10020000D3030008D303000800000000D303000854
:10021000D3030008D3030008597A0008D303000869
:10022000D3030008D3030008D30300080000000034
:10023000D3030008D303000800000000D303000824
:10024000D3030008D3030008D3030008D303000836
:10025000D3030008D3030008D3030008D303000826
:10026000D3030008D3030008D3030008D303000816
:10027000D3030008D3030008D303000800000000E4
:10028000D3030008D303000800000000D3030008D4
:1002900000000000D3030008D3030008D3030008C4
:1002A000D3030008D3030008D303000800F002F8CA
:1002B00000F070F814A696E8000CB244B344DA4596
:1002C00001D100F067F8BAE80F000FA696E83000F9
:1002D000A5EB040504EB0607AAEB0704A7F1010749
:1002E0004FEA15154FEA3414A4F10104AC4201D3CE
:1002F00000F050F813F0010F18BFFB1A43F0010390
:1003000000F001F8DBE71847947D0000C47D000091
:100310000A4410F8014B14F00F0508BF10F8015BF8
:10032000240908BF10F8014B6D1E05D010F8013BE1
:100330006D1E01F8013BF9D1641E03D0641E01F863
:10034000015BFBD19142E4D370470000103A24BF17
:1003500078C878C1FAD8520724BF30C830C144BF2A
:1003600004680C6070470000704700000023002400
:1003700000250026103A28BF78C1FBD8520728BFB5
:1003800030C148BF0B6070471FB507F072FE1FBD3C
:1003900010B510BD00F05CF81146FFF7F5FF07F04F
:1003A0002FFE00F07AF803B4FFF7F2FF03BC00F071
:1003B00081F800000A4880470A4880470A480047F9
:1003C000FEE7FEE7FEE7FEE7FEE7FEE7FEE7FEE705
:1003D000FEE7FEE705480649064A074B704700005E
:1003E00029050008F1780008AD0200084805002042
:1003F000480D002048090020480900204FF0000265
:1004000000B5134694469646203922BFA0E80C500A
:10041000A0E80C50B1F12001BFF4F7AF090728BFE5
:10042000A0E80C5048BF0CC05DF804EB890028BF61
:1004300040F8042B08BF704748BF20F8022B11F08A
:10044000804F18BF00F8012B704770477047704706
:10045000754600F02BF8AE4605006946534620F07D
:100460000700854618B020B5FFF7B4FFBDE820406F
:100470004FF000064FF000074FF000084FF0000B60
:10048000AC46ACE8C009ACE8C009ACE8C009ACE8CF
:10049000C00921F007018D46704710B50446AFF33F
:1004A00000802046BDE81040FFF77DBF0048704740
:1004B0001000002001491820ABBEFEE72600020014
:1004C0007047000000000000FFE7FEE700000000AA
:1004D00080B540F2FC00C2F2000001F099FA80BD44
:1004E00080B540F27410C2F2000001F091FA80BDB4
:1004F00080B540F2EC10C2F2000001F089FA80BD34
:1005000080B540F26420C2F2000001F081FA80BDA3
:10051000704700000000000081B0EFF3108072B659
:100520000090FFE7FEE7000044F60C01C5F602016B
:10053000086840F002000860FFE744F60400C5F6D2
:10054000020000688004002801D4FFE7F5E7704747
:1005500087B006900591049200208DF80F001F20AF
:1005600002909DF81400C00720B9FFE701208DF824
:100570000F004BE0FFE70299481E02900020019017
:1005800051B1FFE70598029901F01F0120FA01F12E
:10059000012088430190FFE70198C00708B1FFE7F9
:1005A000E9E70498009018282BD80099DFE801F0BB
:1005B00028292929292929291F29292929292929B6
:1005C00016292929292929290D000298072804D349
:1005D000FFE701208DF80F00FFE716E002980828DA
:1005E00004D3FFE701208DF80F00FFE70DE002982C
:1005F000102804D3FFE701208DF80F00FFE704E087
:1006000003E001208DF80F00FFE7FFE79DF80F00E2
:1006100078B9FFE705980699096848610698006867
:10062000806820F0180004990843069909688860DA
:10063000FFE79DF80F0007B07047000000000000C2
:1006400080B582B00090009820B9FFE701208DF8B6
:10065000070057E00098407F38B9FFE70099002075
:100660000877009800F054F8FFE7009902204877D7
:100670000098007980B9FFE70098016841F6B7500B
:10068000C0F2C140486100980068806820F01800FE
:100690000099096888600BE000988168C268FFF7DC
:1006A00057FF20B1FFE701208DF807002AE0FFE7A0
:1006B0000098407930B9FFE7009801684FF0FF30AB
:1006C000086104E00098016800690861FFE700988C
:1006D0000068806820F06000009A11685269104339
:1006E000886000980068806820F08000009A116897
:1006F00092691043886000990120487700208DF8A6
:100700000700FFE79DF8070002B080BD0000000071
:1007100082B001900198006843F20001C4F2020126
:10072000884210D1FFE7FFE744F23850C5F60200D7
:10073000016841F400710160006800F400700090ED
:100740000098FFE7FFE702B07047000000000000DC
:1007500086B00490039104984068B0F5403F06D0FD
:10076000FFE70498406808B1FFE7FFE7FFE7039859
:1007700001280BD1FFE704980399C1EBC10100EBFD
:100780008100C06A0B2801D1FFE7FFE7FFE704986B
:1007900090F86000012804D1FFE702208DF81700CF
:1007A0009EE00499012081F86000FFE7FFE70499CB
:1007B000022081F8610004980399C1EBC10100EBAC
:1007C000810028300290029948688B680A6949695B
:1007D00040EA034040EA025040EA415000900F20B6
:1007E000CFF633700190029840680A2805D0FFE7E1
:1007F00002984068092807D1FFE70298C17B00985A
:1008000040EA0160009006E00298C168009840EA62
:1008100001600090FFE7039810BBFFE704980068B1
:10082000406A01998843009908430499096848621D
:1008300002980068049909688861029840680A284B
:1008400005D0FFE702984068092808D1FFE7029821
:10085000C06820F07F40049909688862FFE731E0B2
:10086000029840680B280BD1FFE702988169009835
:1008700040EA81400090019840F440200190FFE759
:1008800004980068C0690199884300990843049955
:100890000968C861029800680499096808610298AB
:1008A00040680A2805D0FFE702984068092808D167
:1008B000FFE70298C06820F07F4004990968086249
:1008C000FFE7FFE70499012081F86100FFE7049941
:1008D000002081F86000FFE700208DF81700FFE797
:1008E0009DF8170006B0704780B582B00090009860
:1008F00020B9FFE701208DF807004FE0009890F83D
:10090000610040B9FFE70099002081F8600000987D
:1009100000F04AF8FFE70099022081F86100009892
:10092000006800684FF6BF71CFF6F8710840009B71
:1009300019685A68DB691A43104308600098006818
:10094000406B40F207118843009B19689A689B69C5
:100950001A431043486300980068006C4FF6FF711B
:100960008843009A1168D2681043086400980068B0
:10097000406B20F44010009B19681A695B691205EE
:1009800042EA435210434863009900204866009AA7
:10099000012182F861108DF80700FFE79DF807003C
:1009A00002B080BD0000000082B001900198006894
:1009B00041F20001C5F20021884210D1FFE7FFE7B4
:1009C00044F23450C5F60200016841F010010160A4
:1009D000006800F0100000900098FFE7FFE702B009
:1009E000704700000000000080B58AB0089002F057
:1009F0006BFB0490089828B9FFE701208DF82700C9
:100A000000F0AABC089890F8350002280ED0FFE745
:100A1000089980204865FFE70899002081F8340094
:100A2000FFE701208DF8270000F096BC08980168C8
:100A300001201022C4F202029142039000F0A38030
:100A4000FFE70898016801202822C4F202029142BF
:100A5000039000F09880FFE7089801680120402289
:100A6000C4F202029142039000F08D80FFE70898E3
:100A7000016801205822C4F202029142039000F062
:100A80008280FFE70898016801207022C4F2020208
:100A90009142039077D0FFE70898016801208822EF
:100AA000C4F20202914203906DD0FFE708980168FA
:100AB0000120A022C4F202029142039063D0FFE71A
:100AC000089801680120B822C4F202029142039002
:100AD00059D0FFE708980168012040F21042C4F2A3
:100AE0000202914203904ED0FFE70898016801206E
:100AF00040F22842C4F202029142039043D0FFE741
:100B000008980168012040F24042C4F2020291427A
:100B1000039038D0FFE708980168012040F258425E
:100B2000C4F20202914203902DD0FFE708980168B9
:100B3000012040F27042C4F202029142039022D09E
:100B4000FFE708980168012040F28842C4F20202DF
:100B50009142039017D0FFE708980168012040F206
:100B6000A042C4F20202914203900CD0FFE7089821
:100B700000684FF64831CBF6FD710844B0FA80F0BA
:100B800040090390FFE70398C00780B1FFE708988A
:100B90000168086820F01E0008600898016848692C
:100BA00020F08000486108980068059009E00898E6
:100BB0000168086820F00E00086008980068059039
:100BC000FFE70898016801201022C4F20202914256
:100BD000029000F00381FFE70898016801202822B5
:100BE000C4F202029142029000F0F880FFE70898F8
:100BF000016801204022C4F202029142029000F0FA
:100C0000ED80FFE70898016801205822C4F2020233
:100C10009142029000F0E280FFE70898016801200D
:100C20007022C4F202029142029000F0D780FFE7E6
:100C30000898016801208822C4F2020291420290C1
:100C400000F0CC80FFE7089801680120A022C4F2E0
:100C500002029142029000F0C180FFE7089801680B
:100C60000120B822C4F202029142029000F0B68044
:100C7000FFE708980168012040F21042C4F2020226
:100C80009142029000F0AA80FFE7089801680120D5
:100C900040F22842C4F202029142029000F09E808B
:100CA000FFE708980168012040F24042C4F20202C6
:100CB0009142029000F09280FFE7089801680120BD
:100CC00040F25842C4F202029142029000F0868043
:100CD000FFE708980168012040F27042C4F2020266
:100CE000914202907AD0FFE708980168012040F213
:100CF0008842C4F20202914202906FD0FFE7089846
:100D00000168012040F2A042C4F202029142029026
:100D100064D0FFE708980168012040F2B842C4F2AD
:100D200002029142029059D0FFE708980168012021
:100D300045F20842C5F60202914202904ED0FFE70A
:100D400008980168012045F21C42C5F60202914252
:100D5000029043D0FFE708980168012045F2304235
:100D6000C5F602029142029038D0FFE70898016868
:100D7000012045F24442C5F60202914202902DD074
:100D8000FFE708980168012045F25842C5F60202C3
:100D90009142029022D0FFE708980168012045F2B5
:100DA0006C42C5F602029142029017D0FFE7089804
:100DB0000168012045F28042C5F60202914202908C
:100DC0000CD0FFE7089800684AF66C31CAF2FD7152
:100DD0000844B0FA80F040090290FFE70298C0078B
:100DE00038B1FFE70898016E086820F48070086049
:100DF000FFE7089800681021C4F20201884200F061
:100E00008180FFE7089800682821C4F20201884227
:100E100078D0FFE7089800684021C4F202018842B8
:100E200070D0FFE7089800685821C4F20201884298
:100E300068D0FFE7089800687021C4F20201884278
:100E400060D0FFE7089800688821C4F20201884258
:100E500058D0FFE708980068A021C4F20201884238
:100E600050D0FFE708980068B821C4F20201884218
:100E700048D0FFE70898006840F21041C4F2020130
:100E800088423FD0FFE70898006840F22841C4F24A
:100E90000201884236D0FFE70898006840F24041DE
:100EA000C4F2020188422DD0FFE70898006840F2A2
:100EB0005841C4F20201884224D0FFE70898006834
:100EC00040F27041C4F2020188421BD0FFE708984B
:100ED000006840F28841C4F20201884212D0FFE764
:100EE0000898006840F2A041C4F20201884209D08B
:100EF000FFE70898006840F2B841C4F20201884256
:100F000007D1FFE708980168086820F00100086031
:100F100006E008980168086820F001000860FFE713
:100F2000FFE705980068C007C8B1FFE702F0CCF8FA
:100F30000499401A062811D3FFE708992020486534
:100F40000899032081F83500FFE70899002081F80F
:100F50003400FFE701208DF82700FDE1E1E7089864
:100F6000016801201022C4F202029142019000F0B7
:100F7000A380FFE70898016801202822C4F202023A
:100F80009142019000F09880FFE7089801680120E5
:100F90004022C4F202029142019000F08D80FFE7EE
:100FA0000898016801205822C4F20202914201907F
:100FB00000F08280FFE70898016801207022C4F2E7
:100FC00002029142019077D0FFE708980168012062
:100FD0008822C4F20202914201906DD0FFE7089886
:100FE00001680120A022C4F202029142019063D064
:100FF000FFE7089801680120B822C4F2020291427A
:10100000019059D0FFE708980168012040F2104292
:10101000C4F20202914201904ED0FFE708980168A5
:10102000012040F22842C4F202029142019043D0D2
:10103000FFE708980168012040F24042C4F2020232
:101040009142019038D0FFE708980168012040F2F2
:101050005842C4F20202914201902DD0FFE7089855
:101060000168012040F27042C4F2020291420190F4
:1010700022D0FFE708980168012040F28842C4F2BC
:1010800002029142019017D0FFE708980168012001
:1010900040F2A042C4F20202914201900CD0FFE75C
:1010A000089800684FF64831CBF6FD710844B0FA55
:1010B00080F040090190FFE70198C00760B1FFE7A9
:1010C0000898806D07900898C06D00F01F013F20C0
:1010D0008840079988600BE00898806D0690089812
:1010E000C06D00F01F010120884006994860FFE7AD
:1010F0000898016801201022C4F202029142009077
:1011000000F00381FFE70898016801202822C4F25B
:1011100002029142009000F0F880FFE70898016811
:1011200001204022C4F202029142009000F0ED80C2
:10113000FFE70898016801205822C4F20202914298
:10114000009000F0E280FFE708980168012070221B
:10115000C4F202029142009000F0D780FFE70898A5
:10116000016801208822C4F202029142009000F03E
:10117000CC80FFE7089801680120A022C4F2020297
:101180009142009000F0C180FFE7089801680120BB
:10119000B822C4F202029142009000F0B680FFE74C
:1011A00008980168012040F21042C4F20202914204
:1011B000009000F0AA80FFE708980168012040F243
:1011C0002842C4F202029142009000F09E80FFE7A4
:1011D00008980168012040F24042C4F202029142A4
:1011E000009000F09280FFE708980168012040F22B
:1011F0005842C4F202029142009000F08680FFE75C
:1012000008980168012040F27042C4F20202914243
:1012100000907AD0FFE708980168012040F28842E8
:10122000C4F20202914200906FD0FFE70898016873
:10123000012040F2A042C4F202029142009064D028
:10124000FFE708980168012040F2B842C4F20202A8
:101250009142009059D0FFE708980168012045F2BB
:101260000842C5F60202914200904ED0FFE708986E
:101270000168012045F21C42C5F60202914200902D
:1012800043D0FFE708980168012045F23042C5F6D7
:1012900002029142009038D0FFE7089801680120CF
:1012A00045F24442C5F60202914200902DD0FFE77C
:1012B00008980168012045F25842C5F602029142A1
:1012C000009022D0FFE708980168012045F26C42A7
:1012D000C5F602029142009017D0FFE70898016816
:1012E000012045F28042C5F60202914200900CD0E6
:1012F000FFE7089800684AF66C31CAF2FD710844AD
:10130000B0FA80F040090090FFE70098C007A0B154
:10131000FFE70898416E806E48600898C06E58B12B
:10132000FFE70898C16E086820F48070086008988C
:10133000016F406F4860FFE7FFE70899012081F8DF
:101340003500FFE70899002081F83400FFE7FFE748
:1013500000208DF82700FFE79DF827000AB080BD28
:1013600080B586B00490049820B9FFE701208DF87D
:10137000170046E3049890F83500022807D0FFE7ED
:1013800004998020486501208DF8170039E30498FE
:10139000016801201022C4F202029142029000F082
:1013A000A380FFE70498016801202822C4F202020A
:1013B0009142029000F09880FFE7049801680120B4
:1013C0004022C4F202029142029000F08D80FFE7B9
:1013D0000498016801205822C4F20202914202904E
:1013E00000F08280FFE70498016801207022C4F2B7
:1013F00002029142029077D0FFE704980168012031
:101400008822C4F20202914202906DD0FFE7049854
:1014100001680120A022C4F202029142029063D02E
:10142000FFE7049801680120B822C4F20202914249
:10143000029059D0FFE704980168012040F2104261
:10144000C4F20202914202904ED0FFE70498016874
:10145000012040F22842C4F202029142029043D09D
:10146000FFE704980168012040F24042C4F2020202
:101470009142029038D0FFE704980168012040F2C1
:101480005842C4F20202914202902DD0FFE7049824
:101490000168012040F27042C4F2020291420290BF
:1014A00022D0FFE704980168012040F28842C4F28C
:1014B00002029142029017D0FFE7049801680120D0
:1014C00040F2A042C4F20202914202900CD0FFE727
:1014D000049800684FF64831CBF6FD710844B0FA25
:1014E00080F040090290FFE70298C007002800F052
:1014F0009D80FFE70499042081F835000498006876
:101500001021C4F20201884200F08180FFE70498B4
:1015100000682821C4F20201884278D0FFE70498CD
:1015200000684021C4F20201884270D0FFE70498AD
:1015300000685821C4F20201884268D0FFE704988D
:1015400000687021C4F20201884260D0FFE704986D
:1015500000688821C4F20201884258D0FFE704984D
:101560000068A021C4F20201884250D0FFE704982D
:101570000068B821C4F20201884248D0FFE704980D
:10158000006840F21041C4F2020188423FD0FFE7F8
:101590000498006840F22841C4F20201884236D023
:1015A000FFE70498006840F24041C4F2020188421B
:1015B0002DD0FFE70498006840F25841C4F20201C0
:1015C000884224D0FFE70498006840F27041C4F2DA
:1015D000020188421BD0FFE70498006840F288416E
:1015E000C4F20201884212D0FFE70498006840F27A
:1015F000A041C4F20201884209D0FFE704980068C4
:1016000040F2B841C4F20201884207D1FFE70498D2
:101610000168086820F00100086006E0049801688D
:10162000086820F001000860FFE7E5E10498016820
:10163000086820F00E000860049800681021C4F2C9
:101640000201884200F08180FFE7049800682821A9
:10165000C4F20201884278D0FFE704980068402174
:10166000C4F20201884270D0FFE704980068582154
:10167000C4F20201884268D0FFE704980068702134
:10168000C4F20201884260D0FFE704980068882114
:10169000C4F20201884258D0FFE704980068A021F4
:1016A000C4F20201884250D0FFE704980068B821D4
:1016B000C4F20201884248D0FFE70498006840F273
:1016C0001041C4F2020188423FD0FFE7049800684D
:1016D00040F22841C4F20201884236D0FFE7049864
:1016E000006840F24041C4F2020188422DD0FFE779
:1016F0000498006840F25841C4F20201884224D0A4
:10170000FFE70498006840F27041C4F20201884289
:101710001BD0FFE70498006840F28841C4F2020140
:10172000884212D0FFE70498006840F2A041C4F25A
:101730000201884209D0FFE70498006840F2B841EE
:10174000C4F20201884207D1FFE7049801680868E3
:1017500020F00100086006E004980168086820F0A5
:1017600001000860FFE70498016801201022C4F21C
:1017700002029142019000F00381FFE704980168A2
:1017800001202822C4F202029142019000F0F88068
:10179000FFE70498016801204022C4F2020291424E
:1017A000019000F0ED80FFE70498016801205822C5
:1017B000C4F202029142019000F0E280FFE7049837
:1017C000016801207022C4F202029142019000F0EF
:1017D000D780FFE70498016801208822C4F2020242
:1017E0009142019000F0CC80FFE70498016801204D
:1017F000A022C4F202029142019000F0C180FFE7F2
:10180000049801680120B822C4F2020291420190BA
:1018100000F0B680FFE704980168012040F2104212
:10182000C4F202029142019000F0AA80FFE70498FE
:101830000168012040F22842C4F202029142019064
:1018400000F09E80FFE704980168012040F24042CA
:10185000C4F202029142019000F09280FFE70498E6
:101860000168012040F25842C4F202029142019004
:1018700000F08680FFE704980168012040F2704282
:10188000C4F20202914201907AD0FFE70498016805
:10189000012040F28842C4F20202914201906FD0CE
:1018A000FFE704980168012040F2A042C4F202025E
:1018B0009142019064D0FFE704980168012040F252
:1018C000B842C4F202029142019059D0FFE7049855
:1018D0000168012045F20842C5F6020291420190DA
:1018E0004ED0FFE704980168012045F21C42C5F67E
:1018F00002029142019043D0FFE704980168012061
:1019000045F23042C5F602029142019038D0FFE71D
:1019100004980168012045F24442C5F60202914252
:1019200001902DD0FFE704980168012045F258424C
:10193000C5F602029142019022D0FFE704980168A7
:10194000012045F26C42C5F602029142019017D087
:10195000FFE704980168012045F28042C5F60202C3
:10196000914201900CD0FFE7049800684AF66C3170
:10197000CAF2FD710844B0FA80F040090190FFE717
:101980000198C00728B3FFE70498016E086820F4A7
:10199000807008600498806D03900498C06D00F01A
:1019A0001F0101208840039948600498416E806EB1
:1019B00048600498C06E58B1FFE70498C16E08688B
:1019C00020F4807008600498016F406F4860FFE762
:1019D000FFE70499012081F83500FFE70499002012
:1019E00081F83400FFE70498006D20B1FFE7049808
:1019F000016D8847FFE7FFE7FFE700208DF817003C
:101A0000FFE79DF8170006B080BD00000000000051
:101A100080B590B00F9000200B9040F20000C2F211
:101A20000000006848F2B511C1F64E31A0FB01106C
:101A3000800A0A900F98806D09900F98806D089029
:101A4000099800680E90089800680D900F9801683A
:101A500001201022C4F202029142079000F0A380FC
:101A6000FFE70F98016801202822C4F20202914288
:101A7000079000F09880FFE70F980168012040224E
:101A8000C4F202029142079000F08D80FFE70F98A8
:101A9000016801205822C4F202029142079000F02E
:101AA0008280FFE70F98016801207022C4F20202D1
:101AB0009142079077D0FFE70F98016801208822B4
:101AC000C4F20202914207906DD0FFE70F980168BF
:101AD0000120A022C4F202029142079063D0FFE7E6
:101AE0000F9801680120B822C4F2020291420790C7
:101AF00059D0FFE70F980168012040F21042C4F26C
:101B00000202914207904ED0FFE70F980168012032
:101B100040F22842C4F202029142079043D0FFE70C
:101B20000F980168012040F24042C4F20202914243
:101B3000079038D0FFE70F980168012040F2584223
:101B4000C4F20202914207902DD0FFE70F9801687E
:101B5000012040F27042C4F202029142079022D06A
:101B6000FFE70F980168012040F28842C4F20202A8
:101B70009142079017D0FFE70F980168012040F2CB
:101B8000A042C4F20202914207900CD0FFE70F98E6
:101B900000684FF64831CBF6FD710844B0FA80F08A
:101BA00040090790FFE70798C007002800F0138559
:101BB000FFE70E980F99C96D01F01F01C84000079B
:101BC000002840F1B080FFE70F9800681021C4F2B0
:101BD0000201884200F08180FFE70F980068282109
:101BE000C4F20201884278D0FFE70F9800684021D4
:101BF000C4F20201884270D0FFE70F9800685821B4
:101C0000C4F20201884268D0FFE70F980068702193
:101C1000C4F20201884260D0FFE70F980068882173
:101C2000C4F20201884258D0FFE70F980068A02153
:101C3000C4F20201884250D0FFE70F980068B82133
:101C4000C4F20201884248D0FFE70F98006840F2D2
:101C50001041C4F2020188423FD0FFE70F980068AC
:101C600040F22841C4F20201884236D0FFE70F98C3
:101C7000006840F24041C4F2020188422DD0FFE7E3
:101C80000F98006840F25841C4F20201884224D003
:101C9000FFE70F98006840F27041C4F202018842E9
:101CA0001BD0FFE70F98006840F28841C4F20201A0
:101CB000884212D0FFE70F98006840F2A041C4F2BA
:101CC0000201884209D0FFE70F98006840F2B8414E
:101CD000C4F20201884207D1FFE70F98006800684C
:101CE00000F00400069006E00F980068006800F01D
:101CF00008000690FFE70698A0B1FFE70F9801687B
:101D0000086820F0040008600F98C06D00F01F0103
:101D100008208840099988600F99486D40F00100BB
:101D20004865FFE7FFE70E980F99C96D01F01F01A5
:101D3000C840C007002800F0A980FFE70F9800689E
:101D40001021C4F20201884200F08180FFE70F9861
:101D500000682821C4F20201884278D0FFE70F987A
:101D600000684021C4F20201884270D0FFE70F985A
:101D700000685821C4F20201884268D0FFE70F983A
:101D800000687021C4F20201884260D0FFE70F981A
:101D900000688821C4F20201884258D0FFE70F98FA
:101DA0000068A021C4F20201884250D0FFE70F98DA
:101DB0000068B821C4F20201884248D0FFE70F98BA
:101DC000006840F21041C4F2020188423FD0FFE7B0
:101DD0000F98006840F22841C4F20201884236D0D0
:101DE000FFE70F98006840F24041C4F202018842C8
:101DF0002DD0FFE70F98006840F25841C4F202016D
:101E0000884224D0FFE70F98006840F27041C4F286
:101E1000020188421BD0FFE70F98006840F288411A
:101E2000C4F20201884212D0FFE70F98006840F226
:101E3000A041C4F20201884209D0FFE70F98006870
:101E400040F2B841C4F20201884207D1FFE70F987F
:101E50000068406900F08000059005E00F98006878
:101E6000006800200590FFE7059870B1FFE70F9824
:101E7000C06D00F01F0101208840099988600F990A
:101E8000486D40F002004865FFE7FFE70E980F99A4
:101E9000C96D01F01F01C8404007002840F1A9802A
:101EA000FFE70F9800681021C4F20201884200F099
:101EB0008180FFE70F9800682821C4F20201884260
:101EC00078D0FFE70F9800684021C4F202018842F1
:101ED00070D0FFE70F9800685821C4F202018842D1
:101EE00068D0FFE70F9800687021C4F202018842B1
:101EF00060D0FFE70F9800688821C4F20201884291
:101F000058D0FFE70F980068A021C4F20201884270
:101F100050D0FFE70F980068B821C4F20201884250
:101F200048D0FFE70F98006840F21041C4F2020168
:101F300088423FD0FFE70F98006840F22841C4F282
:101F40000201884236D0FFE70F98006840F2404116
:101F5000C4F2020188422DD0FFE70F98006840F2DA
:101F60005841C4F20201884224D0FFE70F9800686C
:101F700040F27041C4F2020188421BD0FFE70F9883
:101F8000006840F28841C4F20201884212D0FFE7A3
:101F90000F98006840F2A041C4F20201884209D0C3
:101FA000FFE70F98006840F2B841C4F2020188428E
:101FB00007D1FFE70F980068006800F00200049066
:101FC00005E00F980068006800200490FFE704987F
:101FD00070B1FFE70F98C06D00F01F01042088402A
:101FE000099988600F99486D40F004004865FFE743
:101FF000FFE70E980F99C96D01F01F01C840C00698
:10200000002840F1DE80FFE70F9800681021C4F23D
:102010000201884200F08180FFE70F9800682821C4
:10202000C4F20201884278D0FFE70F98006840218F
:10203000C4F20201884270D0FFE70F98006858216F
:10204000C4F20201884268D0FFE70F98006870214F
:10205000C4F20201884260D0FFE70F98006888212F
:10206000C4F20201884258D0FFE70F980068A0210F
:10207000C4F20201884250D0FFE70F980068B821EF
:10208000C4F20201884248D0FFE70F98006840F28E
:102090001041C4F2020188423FD0FFE70F98006868
:1020A00040F22841C4F20201884236D0FFE70F987F
:1020B000006840F24041C4F2020188422DD0FFE79F
:1020C0000F98006840F25841C4F20201884224D0BF
:1020D000FFE70F98006840F27041C4F202018842A5
:1020E0001BD0FFE70F98006840F28841C4F202015C
:1020F000884212D0FFE70F98006840F2A041C4F276
:102100000201884209D0FFE70F98006840F2B84109
:10211000C4F20201884207D1FFE70F980068006807
:1021200000F00800039006E00F980068006800F0D7
:1021300004000390FFE70398002841D0FFE70F98C1
:10214000C06D00F01F0110208840099988600F9829
:1021500000680068400300281AD5FFE70F98006860
:1021600000680003002809D4FFE70F98006C20B135
:10217000FFE70F98016C8847FFE708E00F98806C35
:1021800020B1FFE70F98816C8847FFE7FFE716E073
:102190000F9800680068C005002807D4FFE70F9873
:1021A0000168086820F008000860FFE70F98006CDD
:1021B00020B1FFE70F98016C8847FFE7FFE7FFE7D3
:1021C000FFE70E980F99C96D01F01F01C840800606
:1021D000002840F12681FFE70F9800681021C4F223
:1021E0000201884200F08180FFE70F9800682821F3
:1021F000C4F20201884278D0FFE70F9800684021BE
:10220000C4F20201884270D0FFE70F98006858219D
:10221000C4F20201884268D0FFE70F98006870217D
:10222000C4F20201884260D0FFE70F98006888215D
:10223000C4F20201884258D0FFE70F980068A0213D
:10224000C4F20201884250D0FFE70F980068B8211D
:10225000C4F20201884248D0FFE70F98006840F2BC
:102260001041C4F2020188423FD0FFE70F98006896
:1022700040F22841C4F20201884236D0FFE70F98AD
:10228000006840F24041C4F2020188422DD0FFE7CD
:102290000F98006840F25841C4F20201884224D0ED
:1022A000FFE70F98006840F27041C4F202018842D3
:1022B0001BD0FFE70F98006840F28841C4F202018A
:1022C000884212D0FFE70F98006840F2A041C4F2A4
:1022D0000201884209D0FFE70F98006840F2B84138
:1022E000C4F20201884207D1FFE70F980068006836
:1022F00000F01000029006E00F980068006800F0FF
:1023000002000290FFE70298002800F08980FFE7B2
:102310000F98C06D00F01F01202088400999886047
:102320000F9890F83500042837D1FFE70F9801681F
:10233000086820F0160008600F980168486920F0CE
:10234000800048610F98006C20B9FFE70F98806CFF
:1023500038B1FFE70F980168086820F008000860AE
:10236000FFE70F98C06D00F01F013F2088400999DA
:1023700088600F99012081F83500FFE70F99002050
:1023800081F83400FFE70F98006D20B1FFE70F9848
:10239000016D8847FFE700F075BC0F980068006882
:1023A000400300281AD5FFE70F9800680068000373
:1023B000002809D4FFE70F98406C20B1FFE70F9881
:1023C000416C8847FFE708E00F98C06B20B1FFE73A
:1023D0000F98C16B8847FFE7FFE720E00F98006880
:1023E0000068C005002811D4FFE70F98016808684D
:1023F00020F0100008600F99012081F83500FFE7F8
:102400000F99002081F83400FFE7FFE70F98C06BB9
:1024100020B1FFE70F98C16B8847FFE7FFE7FFE7B1
:10242000FFE70F98406D002800F0D480FFE70F9879
:10243000406DC007002800F0C480FFE70F9904201A
:1024400081F835000F9800681021C4F2020188421B
:1024500000F08180FFE70F9800682821C4F2020194
:10246000884278D0FFE70F9800684021C4F202014B
:10247000884270D0FFE70F9800685821C4F202012B
:10248000884268D0FFE70F9800687021C4F202010B
:10249000884260D0FFE70F9800688821C4F20201EB
:1024A000884258D0FFE70F980068A021C4F20201CB
:1024B000884250D0FFE70F980068B821C4F20201AB
:1024C000884248D0FFE70F98006840F21041C4F2FC
:1024D000020188423FD0FFE70F98006840F2284190
:1024E000C4F20201884236D0FFE70F98006840F23C
:1024F0004041C4F2020188422DD0FFE70F980068E6
:1025000040F25841C4F20201884224D0FFE70F98FC
:10251000006840F27041C4F2020188421BD0FFE71C
:102520000F98006840F28841C4F20201884212D03C
:10253000FFE70F98006840F2A041C4F20201884210
:1025400009D0FFE70F98006840F2B841C4F20201D9
:10255000884207D1FFE70F980168086820F0010062
:10256000086006E00F980168086820F00100086024
:10257000FFE7FFE70B9801300B900A99884201D9D9
:10258000FFE707E0FFE70F9800680068C007002832
:10259000F0D1FFE70F9800680068C00728B1FFE797
:1025A0000F99032081F8350004E00F99012081F88C
:1025B0003500FFE7FFE70F99002081F83400FFE7BF
:1025C000FFE70F98C06C20B1FFE70F98C16C8847F8
:1025D000FFE7FFE756E30F980168012042F6084243
:1025E000C4F602029142019000F0AA80FFE70F9822
:1025F0000168012042F61C42C4F602029142019099
:1026000000F09E80FFE70F980168012042F63042FB
:10261000C4F602029142019000F09280FFE70F9809
:102620000168012042F64442C4F602029142019040
:1026300000F08680FFE70F980168012042F65842BB
:10264000C4F60202914201907AD0FFE70F98016828
:10265000012042F66C42C4F60202914201906FD012
:10266000FFE70F980168012042F68042C4F602029B
:102670009142019064D0FFE70F980168012042F673
:102680009442C4F602029142019059D0FFE70F989C
:102690000168012045F20842C5F60202914201900C
:1026A0004ED0FFE70F980168012045F21C42C5F6A5
:1026B00002029142019043D0FFE70F980168012088
:1026C00045F23042C5F602029142019038D0FFE750
:1026D0000F980168012045F24442C5F6020291427A
:1026E00001902DD0FFE70F980168012045F2584274
:1026F000C5F602029142019022D0FFE70F980168CF
:10270000012045F26C42C5F602029142019017D0B9
:10271000FFE70F980168012045F28042C5F60202EA
:10272000914201900CD0FFE70F9800684AF66C3197
:10273000CAF2FD710844B0FA80F040090190FFE749
:102740000198C007002800F09B82FFE70F980068FF
:1027500000680C900D980F99C96D01F01F01C840D9
:102760004007002840F1D780FFE79DF83000400780
:10277000002840F1D080FFE70F98C06D00F01F01E6
:1027800004208840089948609DF831000006002820
:1027900018D5FFE79DF83200C00748B9FFE70F984A
:1027A000806C20B1FFE70F98816C8847FFE708E055
:1027B0000F98006C20B1FFE70F98016C8847FFE786
:1027C000FFE7A7E09DF830008006002800F199801F
:1027D000FFE70F9800681021C4F20201884200F060
:1027E0008180FFE70F9800682821C4F20201884227
:1027F00078D0FFE70F9800684021C4F202018842B8
:1028000070D0FFE70F9800685821C4F20201884297
:1028100068D0FFE70F9800687021C4F20201884277
:1028200060D0FFE70F9800688821C4F20201884257
:1028300058D0FFE70F980068A021C4F20201884237
:1028400050D0FFE70F980068B821C4F20201884217
:1028500048D0FFE70F98006840F21041C4F202012F
:1028600088423FD0FFE70F98006840F22841C4F249
:102870000201884236D0FFE70F98006840F24041DD
:10288000C4F2020188422DD0FFE70F98006840F2A1
:102890005841C4F20201884224D0FFE70F98006833
:1028A00040F27041C4F2020188421BD0FFE70F984A
:1028B000006840F28841C4F20201884212D0FFE76A
:1028C0000F98006840F2A041C4F20201884209D08A
:1028D000FFE70F98006840F2B841C4F20201884255
:1028E00007D1FFE70F980168086820F0080008602A
:1028F00006E00F980168086820F004000860FFE710
:10290000FFE70F98006C20B1FFE70F98016C884734
:10291000FFE7FFE7B3E10D980F99C96D01F01F01C3
:10292000C8408007002840F1E180FFE79DF83000B3
:102930008007002840F1DA80FFE70F98C06D00F0B3
:102940001F0102208840089948609DF83100000668
:10295000002818D5FFE79DF83200C00748B9FFE707
:102960000F98406C20B1FFE70F98416C8847FFE754
:1029700008E00F98C06B20B1FFE70F98C16B884744
:10298000FFE7FFE7B1E09DF830008006002800F186
:10299000A380FFE70F9800681021C4F2020188426B
:1029A00000F08180FFE70F9800682821C4F202013F
:1029B000884278D0FFE70F9800684021C4F20201F6
:1029C000884270D0FFE70F9800685821C4F20201D6
:1029D000884268D0FFE70F9800687021C4F20201B6
:1029E000884260D0FFE70F9800688821C4F2020196
:1029F000884258D0FFE70F980068A021C4F2020176
:102A0000884250D0FFE70F980068B821C4F2020155
:102A1000884248D0FFE70F98006840F21041C4F2A6
:102A2000020188423FD0FFE70F98006840F228413A
:102A3000C4F20201884236D0FFE70F98006840F2E6
:102A40004041C4F2020188422DD0FFE70F98006890
:102A500040F25841C4F20201884224D0FFE70F98A7
:102A6000006840F27041C4F2020188421BD0FFE7C7
:102A70000F98006840F28841C4F20201884212D0E7
:102A8000FFE70F98006840F2A041C4F202018842BB
:102A900009D0FFE70F98006840F2B841C4F2020184
:102AA000884207D1FFE70F980168086820F01400FA
:102AB000086006E00F980168086820F00A000860C6
:102AC000FFE70F99012081F83500FFE70F990020FB
:102AD00081F83400FFE7FFE70F98C06B20B1FFE7F4
:102AE0000F98C16B8847FFE7FFE7C7E00D980F9984
:102AF000C96D01F01F01C8400007002840F1BC80EB
:102B0000FFE79DF830000007002840F1B580FFE79F
:102B10000F9800681021C4F20201884200F0818001
:102B2000FFE70F9800682821C4F20201884278D09C
:102B3000FFE70F9800684021C4F20201884270D07C
:102B4000FFE70F9800685821C4F20201884268D05C
:102B5000FFE70F9800687021C4F20201884260D03C
:102B6000FFE70F9800688821C4F20201884258D01C
:102B7000FFE70F980068A021C4F20201884250D0FC
:102B8000FFE70F980068B821C4F20201884248D0DC
:102B9000FFE70F98006840F21041C4F2020188423A
:102BA0003FD0FFE70F98006840F22841C4F20201CD
:102BB000884236D0FFE70F98006840F24041C4F2E7
:102BC000020188422DD0FFE70F98006840F258417B
:102BD000C4F20201884224D0FFE70F98006840F257
:102BE0007041C4F2020188421BD0FFE70F980068D1
:102BF00040F28841C4F20201884212D0FFE70F98E8
:102C0000006840F2A041C4F20201884209D0FFE707
:102C10000F98006840F2B841C4F20201884207D11F
:102C2000FFE70F980168086820F01C00086006E0C4
:102C30000F980168086820F00E000860FFE70F9801
:102C4000C06D00F01F01012000FA01F1089A5160E7
:102C50000F9948650F9981F83500FFE70F9900201B
:102C600081F83400FFE70F98C06C20B1FFE70F98A0
:102C7000C16C8847FFE700E0FFE7FFE7FFE700E000
:102C8000FFE7FFE710B080BD80B584B0039000F08F
:102C90001BFA0290039801900198013048B1FFE7B8
:102CA00040F20800C2F20000017801980844019047
:102CB000FFE7FFE700F008FA0299401A01998842FD
:102CC00001D2FFE7F6E704B080BD0000000000007D
:102CD00090B00F900E9100200D908020C5F600005E
:102CE0000A90FFE70E9800680D99C840002800F090
:102CF000CF81FFE70E9800680D9A012191400840AE
:102D00000C900C98002800F0BF81FFE70E984068F7
:102D100000F00300012807D0FFE70E98406800F09C
:102D2000030002282FD1FFE70F9880680B900D98C1
:102D30004100032000FA01F10B9888430B900E9894
:102D4000C0680D99490000FA01F10B9808430B90F7
:102D50000B980F9988600F9840680B900D9901208F
:102D600000FA01F10B9888430B900E984068C0F36D
:102D700000100D9900FA01F10B9808430B900B9885
:102D80000F994860FFE70E98406800F003000328A1
:102D900018D0FFE70F98C0680B900D9841000320F2
:102DA00000FA01F10B9888430B900E9880680D99FA
:102DB000490000FA01F10B9808430B900B980F990A
:102DC000C860FFE70E98406800F00300022826D193
:102DD000FFE70F980D996FF0030202EA51010844D2
:102DE000006A0B900D9800F0070081000F2000FA98
:102DF00001F10B9888430B900E9800690D9901F032
:102E00000701890000FA01F10B9808430B900B9819
:102E10000F990D9B02EA530211440862FFE70F98D5
:102E200000680B900D984100032000FA01F10B9807
:102E300088430B900E98406800F003000D994900FC
:102E400000FA01F10B9808430B900B980F9908605A
:102E50000E9880798007002800F01581FFE7FFE7D2
:102E600044F25450C5F60200016841F002010160CD
:102E7000006800F0020009900998FFE70D9820F023
:102E8000030040F20841C5F6000140580B900D9830
:102E900000F0030081000F2000FA01F10B98884335
:102EA0000B900F980021C5F60201884203D1FFE77D
:102EB000002008907AE00F9840F20041C5F6020128
:102EC000884203D1FFE7012007906CE00F9840F69D
:102ED0000001C5F60201884203D1FFE702200690F7
:102EE0005EE00F9840F60041C5F60201884203D12A
:102EF000FFE70320059050E00F9841F20001C5F66E
:102F00000201884203D1FFE70420049042E00F98B9
:102F100041F20041C5F60201884203D1FFE70520D6
:102F2000039034E00F9841F60001C5F60201884293
:102F300003D1FFE70620029026E00F9841F60041FA
:102F4000C5F60201884203D1FFE70720019018E08F
:102F50000F9842F20001C5F60201884203D1FFE753
:102F6000082000900AE00F9942F20042C5F60202E2
:102F70000A20914208BF09200090FFE700980190C5
:102F8000FFE701980290FFE702980390FFE703989C
:102F90000490FFE704980590FFE705980690FFE787
:102FA00006980790FFE707980890FFE708980D99A3
:102FB00001F00301890000FA01F10B9808430B901E
:102FC0000B980D9921F0030140F20842C5F600026A
:102FD00088504FF0B04000680B900C990B988843D4
:102FE0000B900E988079C006002805D5FFE70C9954
:102FF0000B9808430B90FFE70B984FF0B041086027
:103000000420C5F6000000680B900C990B988843CB
:103010000B900E9880798006002805D5FFE70C9963
:103020000B9808430B90FFE70B980421C5F60001AD
:1030300008600A9840680B900C990B9888430B9095
:103040000E9880798007002805D5FFE70C990B982A
:1030500008430B90FFE70B980A9948600A980068AC
:103060000B900C990B9888430B900E988079C007B1
:1030700028B1FFE70C990B9808430B90FFE70B98DA
:103080000A990860FFE7FFE70D9801300D9029E6E7
:1030900010B070470000000082B00190ADF802103F
:1030A0008DF801209DF8010028B1FFE7BDF802006E
:1030B0000199886105E0BDF802000004019988616A
:1030C000FFE702B07047000040F24050C2F200003B
:1030D000006870470000000040F20800C2F20000E3
:1030E000027840F24051C2F20001086810440860C2
:1030F000704700000000000080B582B0032000F09F
:10310000DFFB01F029FF44F21842C5F60202116804
:10311000C1F3032348F28C01C0F60001CB5C03F03D
:103120001F03D84000900098126802F00F02895CDB
:1031300001F01F01C84040F20401C2F20001086022
:10314000009840F20001C2F2000108600F2000F078
:1031500013F820B1FFE701208DF8070005E000F02B
:1031600077FB00208DF80700FFE79DF8070002B00D
:1031700080BD00000000000080B590B00E900E9859
:103180000F2810D8FFE70E9976200190002200F05A
:103190007FFB019800F070FB0E9840F20C01C2F228
:1031A0000001086003E001208DF83F0044E0FFE7E4
:1031B00044F25050C5F60200016841F480210160DC
:1031C000006800F4802002900298FFE706A803A997
:1031D00001F03EFE01F0ACFE4000059005984DF672
:1031E0008361C4F21B31A0FB01014FF0FF3000EB03
:1031F0009140049040F20C40C2F2000044F60001FD
:10320000C4F20101016040F2E731C16004994160FC
:1032100000210161816002F077FF48B9FFE740F2C9
:103220000C40C2F2000002F0EBFF8DF83F0003E01B
:1032300001208DF83F00FFE79DF83F0010B080BDF2
:10324000B0B586B0049003910292FFE7049890F81D
:10325000A000012804D1FFE702208DF8170049E003
:103260000499012081F8A000FFE7FFE704990220FC
:1032700081F8A100049A0298342100FB01210091F9
:103280000398019002684368D0F808C0D0F80CE0B9
:1032900004694569CD648C64C1F844E0C1F840C05C
:1032A000CB638A638269C369D0F820C0D0F824E078
:1032B000846AC56A4D660C66C1F85CE0C1F858C006
:1032C0004B650A65006B886604980399029A03F0BF
:1032D00017FD0498016801204862049981F8A10053
:1032E000FFE70499002081F8A000FFE700208DF897
:1032F0001700FFE79DF8170006B0B0BD0000000002
:1033000081B0009001B0704780B584B003900398FD
:103310000068806B029003980068406B01909DF8F4
:1033200008004007002824D5FFE79DF80400400767
:1033300000281ED5FFE703980168486B20F00400C1
:103340004863039801680420C863039AD2F8A41064
:1033500041F00101C2F8A410039981F8A100FFE730
:103360000399002081F8A000FFE70398FFF7C8FF4A
:10337000FFE79DF808008007002825D5FFE79DF8A6
:103380000400800700281FD5FFE703980168486BF9
:1033900020F002004863039801680220C863039983
:1033A000D1F8A40040F00200C1F8A4000399042061
:1033B00081F8A100FFE70399002081F8A000FFE752
:1033C0000398FFF79DFFFFE79DF80800C007E0B1F5
:1033D000FFE79DF80400C007B8B1FFE70398016854
:1033E000486B20F001004863039801680120C8631E
:1033F000039981F8A100FFE70399002081F8A0005C
:10340000FFE7039800F0B8F8FFE79DF80800000711
:1034100000281ED5FFE79DF804000007002818D5F6
:10342000FFE703980168486B20F0080048630398A1
:1034300001680820C8630399012081F8A100FFE713
:103440000399002081F8A000FFE7039800F0FCF941
:10345000FFE704B080BD000080B584B00290029800
:1034600020B9FFE701208DF80F007EE0029890F868
:10347000A10040B9FFE70299002081F8A00002985E
:1034800000F07EF8FFE70299022081F8A10002987F
:103490000168886920F070408861029A116850685C
:1034A000D2F808C0D36840EA0C00184312690243FE
:1034B000886910438861029840690004019001986E
:1034C000029A11689269104388600298C0690004EA
:1034D00001900198029A1168126A1043C86002981C
:1034E000406A000401900198029A1168926A1043A0
:1034F00008610298C06A000401900198029A11685C
:10350000126B10434861029890F835000002019058
:10351000029890F836000004009002980168C86A8A
:1035200000F07F40C862009801990143029890F82A
:1035300034200A430168C86A1043C86202980168CF
:10354000486B40F00600486302980168886940F0C3
:103550000100886102990020C1F8A400029A0121AB
:1035600082F8A1108DF80F00FFE79DF80F0004B05E
:1035700080BD00000000000081B0009001B07047E5
:1035800080B598B01790002216921592149213925B
:10359000129241F20000C5F602000821FFF77CFDFF
:1035A0000020C5F6020080210122FFF775FD179863
:1035B000006841F20001C5F20001884240F0058137
:1035C000FFE7FFE744F24450C5F60200016841F00E
:1035D00008010160006800F0080011901198FFE7F1
:1035E000FFE744F24050C5F60200016841F00401D3
:1035F0000160006800F0040010901098FFE7FFE7FA
:1036000044F24050C5F60200016841F0010101603A
:10361000006800F001000F900F98FFE7FFE744F209
:103620004050C5F60200016841F0020101600068E7
:1036300000F002000E900E98FFE7FFE744F24050C2
:10364000C5F60200016841F010010160006800F059
:1036500010000D900D98FFE7FFE744F24050C5F6CB
:103660000200016841F008010160006800F00800F4
:103670000C900C98FFE7F320129002200990139011
:1036800000210891149115900E200290169040F69A
:103690000000C5F6020012A90B91FFF719FB029872
:1036A000089B099A0B9948F2780CCDF848C0139200
:1036B0001493159216900020C5F602000A90FFF7A9
:1036C00007FB089A09980B990323129313901492FD
:1036D000159009200390169040F20040C5F60200B4
:1036E0000190FFF7F5FA0298089B099A0B994FF49D
:1036F000B04CCDF848C0139214931592169041F235
:103700000000C5F602000590FFF7E2FA0198029A60
:10371000DDF820C0099B0B994FF4806ECDF848E08E
:103720001393CDF850C015931692FFF7D1FA029873
:10373000089B099A0B994FF4816CCDF848C01392FD
:1037400014931592169040F60040C5F602000490BE
:10375000FFF7BEFA039A0498DDF820C0099B0B9985
:103760004FF0040ECDF848E01393CDF850C01593F8
:103770001692FFF7ADFA0598089B099A0B994FF03E
:10378000080CCDF818C0CDF848C04FF0010CCDF8AA
:103790001CC0CDF84CC014931592FFF799FA059808
:1037A0000699079AFFF778FCDDF81CC0089B099A78
:1037B0000A980B994FF0800ECDF848E0CDF84CC038
:1037C00014931592FFF784FAFFE718B080BD00004C
:1037D00083B001900091FFE7019890F8A0000128C4
:1037E00004D1FFE702208DF80B0029E001990120A8
:1037F00081F8A000FFE7FFE70199022081F8A1000E
:1038000001980168486B20F001004863009841F27C
:103810004001C5F20001086001980168486B40F062
:10382000010048630199012081F8A100FFE7019997
:10383000002081F8A000FFE700208DF80B00FFE7D3
:103840009DF80B0003B0704781B0009001B0704745
:1038500081B0FFE744F25450C5F60200016841F020
:1038600002010160006800F0020000900098FFE78C
:1038700001B070470000000080B582B0ADF80600CE
:10388000BDF9060004F05CFA02B080BD0000000043
:1038900080B586B0ADF816000491039204F068FA82
:1038A0000290BDF91600019002980499039A03F062
:1038B000BFFC0146019804F063FA06B080BD000029
:1038C00080B582B00190019804F07EFA02B080BD0C
:1038D00080B584B0029044F60C00C5F60200006882
:1038E00000F004010020B0EB910F13D1FFE744F684
:1038F0000C00C5F60200006800F00700029988423B
:1039000004D0FFE701208DF80F002EE000208DF895
:103910000F002AE044F60C01C5F60201086820F009
:103920000700029A10430860FFF7CEFB0190FFE703
:1039300044F60400C5F60200006800F400510020BF
:10394000B0EB513F0DD1FFE7FFF7BEFB0199401AE5
:10395000B0F57A7F04D9FFE701208DF80F0004E06D
:10396000E6E700208DF80F00FFE79DF80F0004B098
:1039700080BD00000000000080B59AB018900020C3
:103980008DF857008DF856001898C0780007002869
:1039900048D5FFE71898C06E149078B1FFE71498E7
:1039A000B0F5801F13D0FFE71498B0F5001F16D0B4
:1039B000FFE71498B0F5401F19D019E044F22C41EC
:1039C000C5F60201086840F40030086014E0189859
:1039D0000830022103F094FC8DF857000CE0189891
:1039E0002830022103F074FD8DF8570004E003E055
:1039F00001208DF85700FFE79DF8570060B9FFE7F9
:103A000044F25041C5F60201086820F44010189AAB
:103A1000D26E1043086004E09DF857008DF8560000
:103A2000FFE7FFE718984078C007002840D0FFE77D
:103A30001898806D1390042820D81399DFE801F0BE
:103A4000030C141C1D0044F22C41C5F60201086849
:103A500040F40030086015E018980830002103F0A9
:103A60004FFC8DF857000DE018982830002103F026
:103A70002FFD8DF8570005E004E003E001208DF8EC
:103A80005700FFE79DF8570060B9FFE744F2504147
:103A9000C5F60201086820F00700189A926D1043DD
:103AA000086004E09DF857008DF85600FFE7FFE737
:103AB000189840788007002851D5FFE71898C06D06
:103AC0001290B0B1FFE7129840281BD0FFE7129880
:103AD00080281FD0FFE71298C02823D0FFE7129854
:103AE000B0F5807F1FD0FFE71298B0F5A07F1BD004
:103AF0001BE044F22C41C5F60201086840F4003096
:103B0000086016E018980830002103F0F9FB8DF8E2
:103B100057000EE018982830002103F0D9FC8DF8EA
:103B2000570006E005E004E003E001208DF85700AF
:103B3000FFE79DF8570060B9FFE744F25041C5F632
:103B40000201086820F4E070189AD26D10430860F2
:103B500004E09DF857008DF85600FFE7FFE718983E
:103B600040784007002854D5FFE71898006E119060
:103B7000C8B1FFE71198B0F5007F1DD0FFE711989D
:103B8000B0F5806F20D0FFE71198B0F5C06F23D05B
:103B9000FFE71198B0F5006F1FD0FFE71198B0F55F
:103BA000206F1BD01BE044F22C41C5F602010868CF
:103BB00040F40030086016E018980830002103F047
:103BC0009FFB8DF857000EE018982830002103F075
:103BD0007FFC8DF8570006E005E004E003E00120DB
:103BE0008DF85700FFE79DF8570060B9FFE744F2F2
:103BF0005041C5F60201086820F46060189A126E00
:103C00001043086004E09DF857008DF85600FFE768
:103C1000FFE71898C078800700283ED5FFE718987E
:103C2000C06C1090F0B1FFE71098102808D0FFE7A3
:103C3000109820280DD0FFE71098302811D012E0FE
:103C400044F22C41C5F60201086840F400300860D7
:103C50000DE018980830022103F052FB8DF8570050
:103C600005E004E003E001208DF85700FFE79DF830
:103C7000570060B9FFE744F24C41C5F602010868FD
:103C800020F03000189AD26C1043086004E09DF8D0
:103C900057008DF85600FFE7FFE718984078C006F8
:103CA00000284ED5FFE71898406E0F90A0B1FFE7AF
:103CB0000F98B0F5805F18D0FFE70F98B0F5005F60
:103CC0001BD0FFE70F98B0F5405F1ED0FFE70F98BD
:103CD000B0F5804F1AD01AE044F22C41C5F602012B
:103CE000086840F40030086015E01898083000219A
:103CF00003F006FB8DF857000DE0189828300021DE
:103D000003F0E6FB8DF8570005E004E003E0012036
:103D10008DF85700FFE79DF8570060B9FFE744F2C0
:103D20005041C5F60201086820F4E040189A526E2E
:103D30001043086004E09DF857008DF85600FFE737
:103D4000FFE718984078800600284CD5FFE71898C0
:103D5000806E0E90C8B1FFE70E98B0F5803F15D089
:103D6000FFE70E98B0F5003F18D0FFE70E98B0F5CA
:103D7000403F1BD0FFE70E98B0F5802F17D0FFE72C
:103D80000E98B0F5A02F13D013E016E01898083065
:103D9000012103F0B5FA8DF857000EE0189828308D
:103DA000012103F095FB8DF8570006E005E004E0E3
:103DB00003E001208DF85700FFE79DF8570060B938
:103DC000FFE744F25041C5F60201086820F4E02004
:103DD000189A926E1043086004E09DF857008DF821
:103DE0005600FFE7FFE7189840784006002854D5B2
:103DF000FFE71898D0F8B0000D90F0B1FFE70D98EC
:103E0000B0F1805F1AD0FFE70D98B0F1005F1DD0D0
:103E1000FFE70D98B0F1405F20D0FFE70D98B0F1BB
:103E2000804F1CD0FFE70D98B0F1A04F18D0FFE7EE
:103E30000D98B0F1C04F14D014E017E01898083076
:103E4000012103F05DFA8DF857000FE01898283033
:103E5000012103F03DFB8DF8570007E006E005E087
:103E600004E003E001208DF85700FFE79DF85700BC
:103E700068B9FFE744F25841C5F60201086820F02E
:103E8000E040189AD2F8B0201043086004E09DF892
:103E900057008DF85600FFE7FFE7189840780006B6
:103EA00000283BD5FFE71898806F0C90D8B1FFE74A
:103EB0000C98B0F1805F05D0FFE70C98B0F1005F7F
:103EC00009D011E044F22C41C5F60201086840F423
:103ED000003008600CE018980830012103F010FA57
:103EE0008DF8570004E003E001208DF85700FFE74C
:103EF0009DF8570060B9FFE744F25041C5F6020152
:103F0000086820F04050189A926F1043086004E04F
:103F10009DF857008DF85600FFE7FFE71898C07826
:103F2000C007002837D0FFE71898806C0B90032853
:103F300017D80B99DFE801F014020B1344F22C415F
:103F4000C5F60201086840F4003008600DE01898DA
:103F50000830022103F0D4F98DF8570005E004E0A1
:103F600003E001208DF85700FFE79DF8570060B986
:103F7000FFE744F24C41C5F60201086820F0030057
:103F8000189A926C1043086004E09DF857008DF871
:103F90005600FFE7FFE7189880784006002840F1B8
:103FA000B480FFE744F60001C5F60201086840F45A
:103FB00080700860FFF788F81690FFE744F600006D
:103FC000C5F602000068C00500280CD4FFE7FFF723
:103FD0007BF81699401A652804D3FFE703208DF873
:103FE000570000E0EAE79DF85700002840F087807E
:103FF000FFE744F27040C5F60200006800F440702C
:104000001899D1F8B41001F44071884213D0FFE739
:1040100044F27041C5F60201086820F44070179020
:10402000086840F480300860086820F48030086038
:1040300017980860FFE71898D0F8B400B0F5807FB3
:104040001FD1FFE7FFF740F81690FFE744F27040FA
:10405000C5F60200006800F002010020B0EB510F2D
:104060000ED1FFE7FFF730F81699401A41F2893177
:10407000884204D3FFE703208DF8570000E0E5E70E
:10408000FFE79DF85700A0BBFFE7FFE71898D0F8BF
:10409000B40000F44070B0F5407F13D1FFE744F264
:1040A0001041C5F60201086820F47C50189AD2F835
:1040B000B4204FF6F043C0F6FF731A4040EA1210E6
:1040C000086008E044F21041C5F60201086820F4D7
:1040D0007C500860FFE71898D0F8B4206FF31F32C7
:1040E00044F27041C5F60201086810430860FFE71A
:1040F00004E09DF857008DF85600FFE704E09DF8B6
:1041000057008DF85600FFE7FFE718980068C007D2
:10411000002800F04E80FFE71898D0F884000A903D
:1041200028282BD80A99DFE801F0152929292929FF
:10413000292916292929292929291E29292929290D
:1041400029292629292929292929272929292929E4
:104150002929280016E018980830012103F0D0F82A
:104160008DF857000EE018982830012103F0B0F9BF
:104170008DF8570006E005E004E003E001208DF82B
:104180005700FFE79DF8570068B9FFE744F2544134
:10419000C5F60201086820F03800189AD2F8842089
:1041A0001043086004E09DF857008DF85600FFE7C3
:1041B000FFE718980078800700283BD5FFE718989C
:1041C000D0F880000990052819D80999DFE801F096
:1041D00003040C14151616E018980830012103F09A
:1041E0008FF88DF857000EE018982830012103F061
:1041F0006FF98DF8570006E005E004E003E00120C8
:104200008DF85700FFE79DF8570068B9FFE744F2C3
:104210005441C5F60201086820F00700189AD2F848
:1042200080201043086004E09DF857008DF8560088
:10423000FFE7FFE718980078400700283BD5FFE725
:104240001898D0F89C000890052819D80899DFE83C
:1042500001F003040C14151616E01898083001211B
:1042600003F04EF88DF857000EE018982830012121
:1042700003F02EF98DF8570006E005E004E003E0B6
:1042800001208DF85700FFE79DF8570068B9FFE758
:1042900044F25841C5F60201086820F00700189A58
:1042A000D2F89C201043086004E09DF857008DF878
:1042B0005600FFE7FFE718980078800600284ED5E3
:1042C000FFE71898D0F898000790C8B1FFE7079863
:1042D000B0F1805F15D0FFE70798B0F1005F18D00C
:1042E000FFE70798B0F1405F1BD0FFE70798B0F1F8
:1042F000804F17D0FFE70798B0F1A04F13D013E01D
:1043000016E018980830002102F0FAFF8DF85700E7
:104310000EE018982830022103F0DAF88DF85700E3
:1043200006E005E004E003E001208DF85700FFE718
:104330009DF8570068B9FFE744F25441C5F6020101
:10434000086820F0E040189AD2F8982010430860DE
:1043500004E09DF857008DF85600FFE7FFE7189836
:104360000078400600284ED5FFE71898D0F8A40042
:104370000690C8B1FFE70698B0F5806F15D0FFE74B
:104380000698B0F5006F18D0FFE70698B0F5406FBB
:104390001BD0FFE70698B0F5805F17D0FFE70698BF
:1043A000B0F5A05F13D013E016E018980830002194
:1043B00002F0A6FF8DF857000EE018982830022171
:1043C00003F086F88DF8570006E005E004E003E00E
:1043D00001208DF85700FFE79DF8570068B9FFE707
:1043E00044F25841C5F60201086820F4E050189ADA
:1043F000D2F8A4201043086004E09DF857008DF81F
:104400005600FFE7FFE718980078000600284ED511
:10441000FFE71898D0F8A8000590C8B1FFE7059805
:10442000B0F5005F15D0FFE70598B0F5804F18D0C4
:10443000FFE70598B0F5C04F1BD0FFE70598B0F532
:10444000004F17D0FFE70598B0F5204F13D013E0C9
:1044500016E018980830002102F052FF8DF857003E
:104460000EE018982830022103F032F88DF857003A
:1044700006E005E004E003E001208DF85700FFE7C7
:104480009DF8570068B9FFE744F25841C5F60201AC
:10449000086820F46040189AD2F8A82010430860F9
:1044A00004E09DF857008DF85600FFE7FFE71898E5
:1044B00000780007002820D5FFE71898D0F88C0076
:1044C000B0F5805F0CD1FFE718982830022102F088
:1044D000FFFF20B1FFE701208DF85600FFE7FFE75F
:1044E00044F25441C5F60201086820F44050189A7D
:1044F000D2F88C2010430860FFE718980078C006B7
:10450000002820D5FFE71898D0F8A000B0F5807FEC
:104510000CD1FFE718982830022102F0D9FF20B112
:10452000FFE701208DF85600FFE7FFE744F258410E
:10453000C5F60201086820F44070189AD2F8A0204D
:1045400010430860FFE718988078000700283CD5E2
:10455000FFE71898D0F8AC00049050B1FFE704983A
:10456000B0F5803F0DD0FFE70498B0F5003F10D0C4
:1045700010E018980830002102F0C2FE8DF85700B4
:104580000CE018982830022102F0A2FF8DF85700A5
:1045900004E003E001208DF85700FFE79DF8570085
:1045A00068B9FFE744F25841C5F60201086820F4F3
:1045B0004030189AD2F8AC201043086004E09DF80F
:1045C00057008DF85600FFE7FFE7189880784007FE
:1045D00000283FD5FFE71898D0F890000390B0F579
:1045E000801F0AD0FFE70398B0F5001F0ED0FFE749
:1045F0000398B0F5401F11D011E044F22C41C5F6EC
:104600000201086840F4003008600CE01898283077
:10461000012102F05DFF8DF8570004E003E0012066
:104620008DF85700FFE79DF8570068B9FFE744F29F
:104630005441C5F60201086820F44010189AD2F8D7
:1046400090201043086004E09DF857008DF8560054
:10465000FFE7FFE718988078C007A8B3FFE718982E
:10466000006D029028B1FFE70298B0F5803F09D0B5
:1046700010E044F22C41C5F60201086840F4003015
:1046800008600BE018980830022102F039FE8DF81E
:10469000570003E001208DF85700FFE79DF8570011
:1046A00060B9FFE744F24C41C5F60201086820F406
:1046B0008030189A126D1043086004E09DF857008E
:1046C0008DF85600FFE7FFE71898C07880060028AD
:1046D0000CD5FFE718982830022102F0F9FE20B12E
:1046E000FFE701208DF85600FFE7FFE71898807874
:1046F000800700283CD5FFE71898D0F88800019083
:10470000D0B1FFE70198B0F5807F0AD0FFE70198AC
:10471000B0F5007F0ED0FFE70198B0F5407F0AD0DA
:104720000BE044F22C41C5F60201086840F4003069
:10473000086006E005E004E003E001208DF8570082
:10474000FFE79DF8570068B9FFE744F25441C5F60A
:104750000201086820F44070189AD2F888201043AB
:10476000086004E09DF857008DF85600FFE7FFE76A
:1047700018988078C00600280CD5FFE744F2504115
:10478000C5F60201086820F00040189AD26F104365
:104790000860FFE718988078800600280CD5FFE7AE
:1047A00044F25041C5F60201086820F08070189A62
:1047B000126F10430860FFE7189840780007002840
:1047C0000CD5FFE744F25841C5F60201086820F015
:1047D0000060189A526F10430860FFE71898C0787D
:1047E0004006002811D5FFE7FFE744F21041C5F667
:1047F0000201086820F4004008601898D0F8B8203A
:10480000086810430860FFE7FFE71898C0780006C3
:1048100000280CD5FFE744F24C41C5F602010868B8
:1048200020F04050189A526D10430860FFE7189826
:104830008078000600280DD5FFE744F25441C5F604
:104840000201086820F44000189AD2F8942010431E
:104850000860FFE718980079C00790B1FFE7189843
:104860000830002102F04CFD8DF857009DF85700EC
:1048700008B9FFE704E09DF857008DF85600FFE700
:10488000FFE7189800798007002812D5FFE71898ED
:104890000830012102F034FD8DF857009DF85700D3
:1048A00008B9FFE704E09DF857008DF85600FFE7D0
:1048B000FFE7189800794007002812D5FFE71898FD
:1048C0000830022102F01CFD8DF857009DF85700BA
:1048D00008B9FFE704E09DF857008DF85600FFE7A0
:1048E000FFE7189800790007002812D5FFE718980D
:1048F0002830002102F0ECFD8DF857009DF857009C
:1049000008B9FFE704E09DF857008DF85600FFE76F
:10491000FFE718980079C006002812D5FFE718981D
:104920002830012102F0D4FD8DF857009DF8570082
:1049300008B9FFE704E09DF857008DF85600FFE73F
:10494000FFE7189800798006002812D5FFE718982D
:104950002830022102F0BCFD8DF857009DF8570069
:1049600008B9FFE704E09DF857008DF85600FFE70F
:10497000FFE79DF8560020B9FFE700208DF867009B
:1049800003E001208DF86700FFE79DF867001AB08B
:1049900080BD000000000000704700000000000023
:1049A00080B586B004900391049820B9FFE70120F8
:1049B0008DF817003CE2039842F20001C5F2002195
:1049C000096801F00F01884216D9FFE742F20000A2
:1049D000C5F20020016821F00F01039A1143016024
:1049E000006800F00F000399884204D0FFE701201F
:1049F0008DF817001CE2FFE70498007840070028B4
:104A000019D5FFE70498006944F21841C5F6020180
:104A1000096801F0700188420CD9FFE744F218419F
:104A2000C5F60201086820F07000049A126910436C
:104A30000860FFE7FFE7049800780007002819D511
:104A4000FFE70498406944F21C41C5F60201096879
:104A500001F0700188420CD9FFE744F21C41C5F611
:104A60000201086820F07000049A5269104308603F
:104A7000FFE7FFE704980078C006002819D5FFE794
:104A80000498806944F21C41C5F60201096801F4EA
:104A9000E06188420CD9FFE744F21C41C5F60201EF
:104AA000086820F4E060049A926910430860FFE708
:104AB000FFE7049800788006002819D5FFE70498DE
:104AC000C06944F22041C5F60201096801F0700195
:104AD00088420CD9FFE744F22041C5F6020108687C
:104AE00020F07000049AD26910430860FFE7FFE7E6
:104AF000049800788007002819D5FFE70498C0685B
:104B000044F21841C5F60201096801F00F0188421C
:104B10000CD9FFE744F21841C5F60201086820F0FD
:104B20000F00049AD26810430860FFE7FFE704987B
:104B30000078C007002800F08C80FFE744F218419D
:104B4000C5F60201086820F47060049A9268104368
:104B5000086004984068022811D1FFE744F2004041
:104B6000C5F60200006800F400310020B0EB514FA0
:104B700004D1FFE701208DF8170059E13EE00498C9
:104B80004068032811D1FFE744F20040C5F6020057
:104B9000006800F000710020B0EB516F04D1FFE716
:104BA00001208DF8170043E127E0049840680128B0
:104BB00011D1FFE744F20040C5F60200006800F49E
:104BC00080710020B0EB112F04D1FFE701208DF898
:104BD00017002DE110E044F20040C5F60200006825
:104BE00000F004010020B0EB910F04D1FFE7012099
:104BF0008DF817001CE1FFE7FFE7FFE744F21041E3
:104C0000C5F60201086820F00700049A52681043B4
:104C10000860FEF759FA0190FFE744F21040C5F62C
:104C20000200006800F0380004994968B0EBC10F39
:104C30000ED0FFE7FEF748FA0199401A41F2893198
:104C4000884204D3FFE703208DF81700F0E0E4E783
:104C5000FFE7049800788007002819D5FFE704983B
:104C6000C06844F21841C5F60201096801F00F015D
:104C700088420CD2FFE744F21841C5F602010868E9
:104C800020F00F00049AD26810430860FFE7FFE7A6
:104C9000039842F20001C5F20021096801F00F01FA
:104CA000884216D2FFE742F20000C5F200200168F8
:104CB00021F00F01039A11430160006800F00F001A
:104CC0000399884204D0FFE701208DF81700AFE078
:104CD000FFE7049800784007002819D5FFE70498FB
:104CE000006944F21841C5F60201096801F070013B
:104CF00088420CD2FFE744F21841C5F60201086869
:104D000020F07000049A126910430860FFE7FFE783
:104D1000049800780007002819D5FFE70498406937
:104D200044F21C41C5F60201096801F07001884295
:104D30000CD2FFE744F21C41C5F60201086820F0DE
:104D40007000049A526910430860FFE7FFE7049877
:104D50000078C006002819D5FFE70498806944F25E
:104D60001C41C5F60201096801F4E06188420CD2D9
:104D7000FFE744F21C41C5F60201086820F4E06038
:104D8000049A926910430860FFE7FFE704980078EF
:104D90008006002819D5FFE70498C06944F2204135
:104DA000C5F60201096801F0700188420CD2FFE7E4
:104DB00044F22041C5F60201086820F07000049A10
:104DC000D26910430860FFE7FFE700F0C5F844F23E
:104DD0001842C5F602021168C1F3032348F28C01A0
:104DE000C0F60001CB5C03F01F03D8400090009890
:104DF000126802F00F02895C01F01F01C84040F206
:104E00000401C2F200010860009840F20001C2F201
:104E10000001086040F20C00C2F200000068FEF7DA
:104E2000ABF98DF80B009DF80B008DF81700FFE72C
:104E30009DF8170006B080BD44F20041C5F602019E
:104E4000086840F40020086070470000000000007F
:104E500082B00190009101993F20086044F2104017
:104E6000C5F60200006800F007000199486044F2AE
:104E70001840C5F60200016801F47061019A916062
:104E8000016801F00F01019AD160006800F0700024
:104E90000199086144F21C40C5F60200016801F066
:104EA0007001019A5161006800F4E0600199886125
:104EB00044F22040C5F60200006800F0700001993D
:104EC000C86142F20000C5F20020006800F00F0047
:104ED0000099086002B0704780B582B000F03CF8DD
:104EE00044F21842C5F602021168C1F3032348F2E6
:104EF0008C01C0F60001CB5C03F01F03D840019089
:104F00000198126802F00F02895C01F01F0120FA7B
:104F100001F140F20400C2F200000160019940F288
:104F20000002C2F200021160006802B080BD000001
:104F300080B5FFF7D1FF44F21C41C5F602010968B4
:104F4000C1F3022248F28C01C0F60001895C01F035
:104F50001F01C84080BD00008AB044F21040C5F671
:104F60000200006800F0380001460191182800F2A4
:104F70005F810199DFE811F019005C015C015C01BF
:104F80005C015C015C015C013A005C015C015C015C
:104F90005C015C015C015C0140005C015C015C0146
:104FA0005C015C015C015C01460044F20040C5F616
:104FB0000200006800F020010020B0EB511F0ED06D
:104FC000FFE744F20040C5F602000068C0F3C101EB
:104FD00049F20000C0F2D030C840029005E049F22A
:104FE0000000C0F2D0300290FFE727E140F6001049
:104FF000C0F23D00029021E143F20060C0F26E1069
:1050000002901BE144F22840C5F60200016801F05D
:10501000030108910068C0F30510079044F22C408A
:10502000C5F60200006800F001000690069844F200
:105030003441C5F60201096889B2C908484300EE47
:10504000100AB8EE400A8DED040A0798002800F017
:10505000EB80FFE70898009048B1FFE7009801282F
:1050600065D0FFE70098022800F08380A3E044F2B7
:105070000040C5F60200006800F020010020B0EBFF
:10508000511F31D0FFE744F20040C5F6020000682E
:10509000C0F3C10149F20000C0F2D030C840059011
:1050A0009DED050AB8EE400A9DED071AB8EE411ACB
:1050B00080EE010A44F23040C5F6020000686FF34A
:1050C0005F2001EE100AB8EE411A9DED042A9FED13
:1050D0005E3A02EE031AB7EE002A31EE021A20EE13
:1050E000010A8DED030A21E09DED070AB8EE401A92
:1050F0009FED570A80EE010A44F23040C5F60200E7
:1051000000686FF35F2001EE100AB8EE411A9DEDC2
:10511000042A9FED4D3A02EE031AB7EE002A31EE53
:10512000021A20EE010A8DED030AFFE765E09DED0E
:10513000070AB8EE401A9FED450A80EE010A44F2D4
:105140003040C5F6020000686FF35F2001EE100AE0
:10515000B8EE411A9DED042A9FED3B3A02EE031A88
:10516000B7EE002A31EE021A20EE010A8DED030A95
:1051700043E09DED070AB8EE401A9FED320A80EE3B
:10518000010A44F23040C5F6020000686FF35F2068
:1051900001EE100AB8EE411A9DED042A9FED2A3A5D
:1051A00002EE031AB7EE002A31EE021A20EE010ACF
:1051B0008DED030A21E09DED070AB8EE401A9FED40
:1051C000230A80EE010A44F23040C5F6020000686E
:1051D0006FF35F2001EE100AB8EE411A9DED042A2C
:1051E0009FED193A02EE031AB7EE002A31EE021AC9
:1051F00020EE010A8DED030AFFE744F23040C5F6C8
:105200000200006881B2012000EB512009909DED61
:10521000030A9DED091AB8EE411A80EE010ABCEEB0
:10522000C00A8DED020A02E000200290FFE705E0CF
:1052300040F60010C0F23D000290FFE702980AB06D
:10524000704700BF001BB74B000000390024744AB0
:105250000024744C0000000080B544F26440C5F6A0
:1052600002000068400500280AD5FFE7FFF794FB1D
:1052700044F26841C5F602014FF480600860FFE720
:1052800080BD00000000000080B58CB00A900A9834
:1052900028B9FFE701208DF82F0000F049BD0A98DA
:1052A0000078C007002800F0DD80FFE744F21040DE
:1052B000C5F60200006800F03800069044F228406D
:1052C000C5F6020000680590069810280AD0FFE78E
:1052D000069818281CD1FFE7059800F00300022863
:1052E00016D1FFE744F20040C5F60200006800F462
:1052F00000310020B0EB514F09D0FFE70A98406819
:1053000028B9FFE701208DF82F0000F011BDA8E0BB
:10531000FFE70A984068B0F5803F09D1FFE744F203
:105320000041C5F60201086840F48030086056E08C
:105330000A98406888B9FFE744F20041C5F60201C7
:10534000086820F480300860086820F48010086045
:10535000086820F48020086040E00A984068B0F5B2
:10536000A02F11D1FFE744F20041C5F60201086801
:1053700040F480200860086820F480100860086805
:1053800040F48030086028E00A984068B0F5A81F13
:1053900011D1FFE744F20041C5F60201086840F46C
:1053A00080200860086840F480100860086840F4B5
:1053B0008030086010E044F20041C5F60201086840
:1053C00020F480300860086820F4802008600868B5
:1053D00020F480100860FFE7FFE7FFE7FFE7FFE743
:1053E0000A984068F0B1FFE7FDF76EFE0990FFE70D
:1053F00044F20040C5F60200006800F400310020CD
:10540000B0EB514F0DD1FFE7FDF75EFE0999401A51
:10541000652805D3FFE703208DF82F0000F088BC36
:10542000E6E71DE0FDF750FE0990FFE744F200407B
:10543000C5F60200006800F400310020B0EB514FC7
:105440000DD0FFE7FDF740FE0999401A652805D306
:10545000FFE703208DF82F0000F06ABCE6E7FFE7C6
:10546000FFE7FFE70A9800788007002840F1C68030
:10547000FFE744F21040C5F60200006800F0380073
:10548000049044F22840C5F6020000680390049896
:1054900050B1FFE70498182851D1FFE79DF80C00A0
:1054A000800700284BD1FFE744F20040C5F6020018
:1054B000006800F004010020B0EB910F09D0FFE775
:1054C0000A98C06828B9FFE701208DF82F0000F086
:1054D0002FBC44F20041C5F60201086820F0190013
:1054E0000A9AD26810430860FDF7EEFD0990FFE7C5
:1054F00044F20040C5F60200006800F004010020FC
:10550000B0EB910F0DD1FFE7FDF7DEFD0999401AD1
:10551000032805D3FFE703208DF82F0000F008BC17
:10552000E6E744F20441C5F60201086820F0FE40B7
:105530000A9A126940EA02600860FFE75DE00A9893
:10554000C068A0B3FFE744F20041C5F60201086855
:1055500020F019000A9AD26810430860FDF7B4FDE4
:105560000990FFE744F20040C5F60200006800F031
:1055700004010020B0EB910F0CD1FFE7FDF7A4FD73
:105580000999401A032804D3FFE703208DF82F0060
:10559000CEE3E7E744F20441C5F60201086820F0D3
:1055A000FE400A9A126940EA0260086024E044F270
:1055B0000041C5F60201086820F001000860FDF70F
:1055C00083FD0990FFE744F20040C5F60200006841
:1055D00000F004010020B0EB910F0CD0FFE7FDF7C5
:1055E00073FD0999401A032804D3FFE703208DF8BF
:1055F0002F009DE3E7E7FFE7FFE7FFE70A98007862
:10560000C006002840F1A080FFE744F21040C5F634
:105610000200006800F03800029044F22840C5F60D
:10562000020000680190029808280AD0FFE702985B
:1056300018282BD1FFE7019800F00300012825D19D
:10564000FFE744F20040C5F60200006800F48071F4
:105650000020B0EB112F09D0FFE70A98C06980281D
:1056600004D0FFE701208DF82F0061E3FFE744F24B
:105670000C41C5F60201086820F07C500A9A126AB3
:1056800040EA02600860FFE7FFE75CE00A98C06953
:1056900098B3FFE744F20041C5F60201086840F004
:1056A00080000860FDF710FD0990FFE744F200401C
:1056B000C5F60200006800F480710020B0EB112FE5
:1056C0000CD1FFE7FDF700FD0999401A032804D328
:1056D000FFE703208DF82F002AE3E7E7FFE744F216
:1056E0000C41C5F60201086820F07C500A9A126A43
:1056F00040EA02600860FFE724E044F20041C5F69A
:105700000201086820F080000860FDF7DDFC0990C8
:10571000FFE744F20040C5F60200006800F4807123
:105720000020B0EB112F0CD0FFE7FDF7CDFC09995D
:10573000401A032804D3FFE703208DF82F00F7E277
:10574000E7E7FFE7FFE7FFE70A9800780007002890
:105750004FD5FFE70A98406928B3FFE744F2744148
:10576000C5F60201086840F001000860FDF7ACFCD6
:105770000990FFE744F27440C5F60200006800F0AB
:1057800002010020B0EB510F0CD1FFE7FDF79CFCAC
:105790000999401A032804D3FFE703208DF82F004E
:1057A000C6E2E7E724E044F27441C5F60201086866
:1057B00020F001000860FDF787FC0990FFE744F244
:1057C0007440C5F60200006800F002010020B0EB52
:1057D000510F0CD0FFE7FDF777FC0999401A032819
:1057E00004D3FFE703208DF82F00A1E2E7E7FFE7EE
:1057F000FFE70A980078800600284FD5FFE70A984F
:10580000806928B3FFE744F20041C5F60201086849
:1058100040F480500860FDF757FC0990FFE744F220
:105820000040C5F60200006800F400510020B0EB13
:10583000513F0CD1FFE7FDF747FC0999401A0328B7
:1058400004D3FFE703208DF82F0071E2E7E724E09F
:1058500044F20041C5F60201086820F48050086057
:10586000FDF732FC0990FFE744F20040C5F6020064
:10587000006800F400510020B0EB513F0CD0FFE76E
:10588000FDF722FC0999401A032804D3FFE70320FF
:105890008DF82F004CE2E7E7FFE7FFE70A98007872
:1058A0004007002840F1CA80FFE744F60001C5F632
:1058B0000201086840F480700860FDF705FC09905B
:1058C000FFE744F60000C5F602000068C0050028A6
:1058D0000CD4FFE7FDF7F8FB0999401A652804D3BB
:1058E000FFE703208DF82F0022E2EAE7FFE70A989E
:1058F0008068012809D1FFE744F27041C5F6020132
:10590000086840F00100086054E00A98806888B98F
:10591000FFE744F27041C5F60201086820F001007B
:105920000860086820F080000860086820F0040023
:1059300008603EE00A988068052811D1FFE744F22C
:105940007041C5F60201086840F00400086008686C
:1059500020F080000860086840F00100086027E03F
:105960000A988068852811D1FFE744F27041C5F696
:105970000201086840F004000860086840F08000F8
:105980000860086840F00100086010E044F27041CF
:10599000C5F60201086820F001000860086820F0E0
:1059A00004000860086820F080000860FFE7FFE757
:1059B000FFE7FFE7FFE70A988068F8B1FFE7FDF728
:1059C00083FB0990FFE744F27040C5F602000068CF
:1059D00000F002010020B0EB510F0ED1FFE7FDF700
:1059E00073FB0999401A41F28931884204D3FFE7D9
:1059F00003208DF82F009BE1E5E71EE0FDF764FB37
:105A00000990FFE744F27040C5F60200006800F01C
:105A100002010020B0EB510F0ED0FFE7FDF754FB61
:105A20000999401A41F28931884204D3FFE70320E3
:105A30008DF82F007CE1E5E7FFE7FFE70A98406A71
:105A4000002800F07181FFE744F21040C5F6020023
:105A5000006800F03800182800F0E080FFE70A989E
:105A6000406A022840F0B480FFE744F20041C5F6E6
:105A70000201086820F080700860FDF725FB09909E
:105A8000FFE744F20040C5F60200006800F0007134
:105A90000020B0EB516F0CD0FFE7FDF715FB099923
:105AA000401A032804D3FFE703208DF82F003FE1BD
:105AB000E7E7FFE744F22841C5F60201086840F233
:105AC000F33290430A9B9A6ADB6A42EA031210435C
:105AD00008600A99086BD1F834C08B6BCA6B013827
