:020000040800F2
:1000000020210020C102000871E4000881DE000800
:1000100069E4000861080008190F010800000000E9
:10002000000000000000000000000000C1F2000815
:100030004114000800000000E1EA0008C9F20008CD
:10004000DF020008DF020008DF020008DF0200080C
:10005000DF020008DF020008DF0200084914000880
:10006000DF020008DF020008DF020008C9080008FC
:10007000D9080008E9080008F9080008DF020008AC
:10008000DF020008DF020008DF020008DF020008CC
:10009000DF020008DF020008DF020008DF020008BC
:1000A000DF020008DF020008DF020008DF020008AC
:1000B000DF020008DF020008DF020008DF0200089C
:1000C000DF020008DF020008DF02000869F1000813
:1000D000DF020008E90E0108DF020008DF02000865
:1000E000DF020008DF020008DF020008DF0200086C
:1000F000DF020008DF020008DF020008DF0200085C
:10010000DF020008DF020008DF020008DF0200084B
:10011000DF020008DF02000831F50008DF020008F6
:10012000DF020008DF020008DF020008DF0200082B
:10013000DF0200080000000000000000DF020008ED
:10014000DF020008DF020008DF020008DF0200080B
:10015000DF020008DF020008DF020008DF020008FB
:10016000DF020008DF020008DF020008DF020008EB
:10017000DF020008DF020008DF020008DF020008DB
:10018000DF020008DF020008DF020008DF020008CB
:10019000DF020008DF020008DF020008DF020008BB
:1001A00089DE0008DF020008DF020008DF02000825
:1001B000DF020008DF020008DF020008DF0200089B
:1001C000DF020008DF02000800000000000000005D
:1001D0000000000000000000DF0200080000000036
:1001E000000000000000000000000000000000000F
:1001F0000000000000000000DF020008DF0200082D
:10020000DF020008DF02000800000000DF02000833
:10021000DF020008DF02000821F50008DF02000805
:10022000DF020008DF020008DF0200080000000013
:10023000DF020008DF02000800000000DF02000803
:10024000DF020008DF020008DF020008DF0200080A
:10025000DF020008DF020008DF020008DF020008FA
:10026000DF020008DF020008DF020008DF020008EA
:10027000DF020008DF020008DF02000800000000C3
:10028000DF020008DF02000800000000DF020008B3
:1002900000000000DF020008DF020008DF020008A3
:1002A000DF020008DF020008DF020008DFF80CD0E0
:1002B00000F04CFA0048004771130108202100208B
:1002C000074880470748804707480047FEE7FEE7A2
:1002D000FEE7FEE7FEE7FEE7FEE7FEE7FEE7FEE7F6
:1002E00069140008B9F30008AD0200082DE9F05FB9
:1002F0000546002092469B46884606468146402495
:100300001BE0284641464746224600F057F8534630
:100310005A46C01A914110D311461846224600F0A1
:100320003EF82D1A67EB01084F46224601200021B6
:1003300000F035F817EB00094E41201EA4F101042E
:10034000DFDC484631462A464346BDE8F09FD2B23C
:1003500001E000F8012B491EFBD270470022F6E7AE
:1003600010B513460A4604461946FFF7F0FF20462B
:1003700010BD30B50B46014600202022012409E0C3
:1003800021FA02F59D4205D303FA02F5491B04FA4E
:1003900002F52844151EA2F10102F1DC30BD202A2D
:1003A00004DB203A00FA02F1002070479140C2F1CC
:1003B000200320FA03F3194390407047202A04DBFE
:1003C000203A21FA02F00021704721FA02F3D040CE
:1003D000C2F1200291400843194670472DE9FE4FB3
:1003E000804681EA0300C00F0C46009021F00041D6
:1003F00023F00045B8EB0200A94105D24046214652
:1004000090461C460B46024623F00040104347D05E
:10041000270DC7F30A00C3F30A510290401A019056
:1004200040286BDAC3F3130040F4801B0098924617
:1004300020B10023D2EB030A63EB0B0B0198594662
:10044000C0F140025046FFF7AAFF06460D4650464F
:100450005946019A00F092F910EB0800614100241E
:1004600087EA115284EAE7731A4340D0009A62B3D4
:10047000019A012A4FEA075215DC001B61EB0201C9
:100480004FF0004202EA0752CDE90042001C41F55C
:10049000801132462B4600F092F903B0BDE8F08F90
:1004A00040462146F9E7001B61EB0201001C41F5C3
:1004B000801300185B412018A2F5001747EB0301D9
:1004C00040EAD570B6196D4111E06D084FEA360665
:1004D00045EAC0754FEA0752001B61EB0201001CA0
:1004E00041F5801149084FEA300000195141324668
:1004F0002B4603B0BDE8F04F00F052B9009801223E
:1005000040000023D0EB020263EBE0730098214629
:100510004FEAE074B8EB000061EB0401E9E783F017
:1005200000435BE781F0004158E72DE9FE4F81EA87
:10053000030404F0004421F0004100944FF0000B4C
:1005400023F0004350EA01045ED052EA03045BD07A
:10055000C3F30A54C1F30A552C44A4F2F3340194B2
:10056000A0FB0254C1F3130141F48011C3F3130340
:1005700043F4801301FB024400FB034E840A970AF4
:1005800044EA815447EA8357A4FB076802958D0A21
:1005900005FB07854FEA932C04FB0C542705029DAD
:1005A0004FEA065847EA1637B5EB08056EEB070C1D
:1005B000870E920E47EA811742EA8312A7FB0201D7
:1005C000B6EB0B0164EB00042B0D43EA0C335E1811
:1005D00044EB1C50DA465146E7FB0201C5F3130415
:1005E0004FEA0B3343EA14534FEA0432019C43EAC7
:1005F0000603A4F10C040294009CCDE900B400F0C1
:10060000DEF803B0BDE8F08F00200146F9E72DE9E0
:10061000F04D81EA030404F0004B21F0004514463C
:100620004FF0000A23F0004150EA050220D054EABE
:1006300001021DD0C5F30A570246C5F31303C1F3E7
:100640001300C1F30A5640F4801543F48013A7EB5E
:100650000608101BD64608F2FD3873EB050002D3DE
:1006600008F1010801E092185B41B8F1000F03DACC
:1006700000200146BDE8F08D00204FF480110646B1
:1006800084460EE0171B73EB050705D3121B63EBC3
:10069000050306434CEA010C49084FEA3000921862
:1006A0005B4150EA0107EDD152EA030012D082EA21
:1006B000040083EA0501084305D0101BAB4106D2B4
:1006C0000122002306E000224FF0004302E06FF019
:1006D000010253101AEB06004CEB085110EB0A0014
:1006E00041EB0B01BDE8F04D00F05AB8C1F30A52DE
:1006F000C1F3130140F2FF3341F480119A4202DA50
:1007000000200146704740F233439A42A2F233423E
:1007100002DC5242FFF752BEFFF741BE30B5041E65
:1007200071F1000404DB4FF00044404264EB01012E
:10073000141E73F1000405DB1C464FF000435242C7
:1007400063EB0403994208BF904230BD1CB50948D1
:100750000090094801900546009C06E0E06840F0E2
:10076000010394E8070098471034AC42F6D3FFF732
:10077000A1FD0000302C0108502C0108202A06DBC6
:10078000CB17203A41FA02F043EAE07306E041FA5F
:1007900002F3D040C2F1200291400843194670474D
:1007A00010B5141E73F1000408DA401C41F1000179
:1007B00092185B411A4301D120F0010010BD2DE9D0
:1007C000F04D92469B4611B1B1FA81F202E0B0FAC7
:1007D00080F220329046FFF7E2FD04460F4640EAE1
:1007E0000A0041EA0B0153465A46084313D011460A
:1007F00053EA010019D0C8F140025046FFF7DEFD70
:1008000005460E46504659464246FFF7C8FD084386
:1008100005D0012004E020463946BDE8F08D0020D7
:10082000054346EAE0762C4337430A986305E40A19
:10083000A0EB08000022FD0A44EA47540A3002D522
:1008400000200146E9E7010510196941DDE9084585
:1008500000196941BDE8F04DA2E70000000000006A
:10086000FFE7FEE70000000080B58AB00020099095
:100870000890079006900590FFE744F24050C5F6B7
:100880000200016841F001010160006800F0010010
:1008900004900498FFE70020C5F6020003900421AD
:1008A00001910022029205F027F9019A029903981A
:1008B0000592012206920791089105A904F0B4FD62
:1008C0000AB080BD0000000080B540F27C00C2F29A
:1008D000000002F011F980BD80B540F2F400C2F2D0
:1008E000000002F009F980BD80B540F26C10C2F240
:1008F000000002F001F980BD80B540F2E410C2F2C0
:10090000000002F0F9F880BD83B0029002980168FF
:1009100001201022C4F202029142009000F0A38054
:10092000FFE70298016801202822C4F202029142E6
:10093000009000F09880FFE70298016801204022B3
:10094000C4F202029142009000F08D80FFE702980D
:10095000016801205822C4F202029142009000F086
:100960008280FFE70298016801207022C4F202022F
:100970009142009077D0FFE7029801680120882219
:10098000C4F20202914200906DD0FFE70298016824
:100990000120A022C4F202029142009063D0FFE73E
:1009A000029801680120B822C4F20202914200902C
:1009B00059D0FFE702980168012040F21042C4F2CA
:1009C0000202914200904ED0FFE702980168012098
:1009D00040F22842C4F202029142009043D0FFE765
:1009E00002980168012040F24042C4F202029142A2
:1009F000009038D0FFE702980168012040F2584289
:100A0000C4F20202914200902DD0FFE702980168E3
:100A1000012040F27042C4F202029142009022D0C2
:100A2000FFE702980168012040F28842C4F2020206
:100A30009142009017D0FFE702980168012040F230
:100A4000A042C4F20202914200900CD0FFE702984B
:100A500000684FF64831CBF6FD710844B0FA80F0DB
:100A600040090090FFE70098C00740B3FFE70298F5
:100A7000007810384AF6AB21CAF6AA21A0FB011073
:100A800000090190019800F0070142F2C870C0F619
:100A90000100405C0299C8650198042807D3FFE76C
:100AA00002990868042262F30900886506E0029949
:100AB000086840F2FF3290438865FFE705E002993D
:100AC000086820F0FF008865FFE70298806D03B09A
:100AD000704700000000000084B003900398006895
:100AE000019003980168012045F20842C5F6020210
:100AF000914200904ED0FFE703980168012045F233
:100B00001C42C5F602029142009043D0FFE70398D1
:100B10000168012045F23042C5F602029142009080
:100B200038D0FFE703980168012045F24442C5F63A
:100B30000202914200902DD0FFE703980168012046
:100B400045F25842C5F602029142009022D0FFE7DA
:100B500003980168012045F26C42C5F602029142F9
:100B6000009017D0FFE703980168012045F280420A
:100B7000C5F60202914200900CD0FFE7039800688E
:100B80004AF66C31CAF2FD710844B0FA80F04009AF
:100B90000090FFE70098C00710B3FFE703980078C4
:100BA00008384CF6CD41CCF6CC41A0FB0110000931
:100BB0000290029945F60000C5F6020000EB8100A4
:100BC00003990866039945F68000C5F60200486659
:100BD000029800F01F01012088400399886635E0E3
:100BE0000398007810384AF6AB21CAF6AA21A0FB78
:100BF000011000090290019840F2B841C4F20201CC
:100C000088420CD8FFE7019840F21041C4F202017B
:100C1000884204D3FFE7029808300290FFE7029968
:100C200040F60000C4F2020000EB81000399086660
:100C3000039940F68000C4F202004866029800F072
:100C40001F010120884003998866FFE704B07047C0
:100C500083B002900298007901900198002800F07A
:100C60008A80FFE70198082800F28580FFE7029854
:100C70000168012045F20842C5F602029142009047
:100C80004ED0FFE702980168012045F21C42C5F6EC
:100C900002029142009043D0FFE7029801680120D0
:100CA00045F23042C5F602029142009038D0FFE78B
:100CB00002980168012045F24442C5F602029142C1
:100CC00000902DD0FFE702980168012045F25842BC
:100CD000C5F602029142009022D0FFE70298016817
:100CE000012045F26C42C5F602029142009017D0F5
:100CF000FFE702980168012045F28042C5F6020232
:100D0000914200900CD0FFE7029800684AF66C31DF
:100D1000CAF2FD710844B0FA80F040090090FFE784
:100D20000098C00780B1FFE7019945F6FC00C5F6C1
:100D3000020000EB81000299C866029945F6401056
:100D4000C5F6020008670FE0019940F6FC00C4F206
:100D5000020000EB81000299C866029940F640103B
:100D6000C4F202000867FFE70198411E0120884095
:100D700002994867FFE703B07047000000000000D9
:100D800085B0049000208DF80F000498806918BB8E
:100D9000FFE70498806A029003281BD80299DFE8D5
:100DA00001F0020D0218049890F82F00C00720B13E
:100DB000FFE701208DF80F00FFE70CE00498C06A00
:100DC000B0F1C07F04D1FFE701208DF80F00FFE7ED
:100DD00001E000E0FFE747E004988069B0F5005FBC
:100DE00026D1FFE70498806A019003281ED8019954
:100DF000DFE801F00206021101208DF80F0016E075
:100E0000049890F82F00C00720B1FFE701208DF86B
:100E10000F00FFE70BE00498C06AB0F1C07F04D177
:100E2000FFE701208DF80F00FFE700E0FFE71AE081
:100E30000498806A0090032804D3FFE700980328F1
:100E400004D00EE001208DF80F000BE0049890F81C
:100E50002F00C00720B1FFE701208DF80F00FFE74A
:100E600000E0FFE7FFE7FFE79DF80F0005B07047E0
:100E700089B008900791069205930898806D0490B8
:100E80000898806D03900898016801201022C4F230
:100E900002029142029000F00381FFE70898016886
:100EA00001202822C4F202029142029000F0F88050
:100EB000FFE70898016801204022C4F20202914233
:100EC000029000F0ED80FFE70898016801205822A9
:100ED000C4F202029142029000F0E280FFE708981B
:100EE000016801207022C4F202029142029000F0D7
:100EF000D780FFE70898016801208822C4F2020227
:100F00009142029000F0CC80FFE708980168012030
:100F1000A022C4F202029142029000F0C180FFE7D9
:100F2000089801680120B822C4F20202914202909E
:100F300000F0B680FFE708980168012040F21042F7
:100F4000C4F202029142029000F0AA80FFE70898E2
:100F50000168012040F22842C4F20202914202904C
:100F600000F09E80FFE708980168012040F24042AF
:100F7000C4F202029142029000F09280FFE70898CA
:100F80000168012040F25842C4F2020291420290EC
:100F900000F08680FFE708980168012040F2704267
:100FA000C4F20202914202907AD0FFE708980168E9
:100FB000012040F28842C4F20202914202906FD0B6
:100FC000FFE708980168012040F2A042C4F2020243
:100FD0009142029064D0FFE708980168012040F236
:100FE000B842C4F202029142029059D0FFE7089839
:100FF0000168012045F20842C5F6020291420290C2
:101000004ED0FFE708980168012045F21C42C5F662
:1010100002029142029043D0FFE708980168012044
:1010200045F23042C5F602029142029038D0FFE705
:1010300008980168012045F24442C5F60202914237
:1010400002902DD0FFE708980168012045F2584230
:10105000C5F602029142029022D0FFE7089801688B
:10106000012045F26C42C5F602029142029017D06F
:10107000FFE708980168012045F28042C5F60202A8
:10108000914202900CD0FFE7089800684AF66C3154
:10109000CAF2FD710844B0FA80F040090290FFE7FF
:1010A0000298C00770B1FFE70898416E806E4860F3
:1010B0000898C06E28B1FFE70898016F406F48603C
:1010C000FFE7FFE70898016801201022C4F202023E
:1010D0009142019000F0A380FFE708980168012089
:1010E0002822C4F202029142019000F09880FFE7AA
:1010F0000898016801204022C4F202029142019046
:1011000000F08D80FFE70898016801205822C4F2A2
:1011100002029142019000F08280FFE70898016886
:1011200001207022C4F202029142019077D0FFE7C1
:101130000898016801208822C4F2020291420190BD
:101140006DD0FFE7089801680120A022C4F20202D6
:101150009142019063D0FFE7089801680120B8220E
:10116000C4F202029142019059D0FFE70898016849
:10117000012040F21042C4F20202914201904ED08E
:10118000FFE708980168012040F22842C4F20202F9
:101190009142019043D0FFE708980168012040F296
:1011A0004042C4F202029142019038D0FFE7089811
:1011B0000168012040F25842C4F2020291420190BB
:1011C0002DD0FFE708980168012040F27042C4F278
:1011D00002029142019022D0FFE7089801680120A5
:1011E00040F28842C4F202029142019017D0FFE718
:1011F00008980168012040F2A042C4F20202914224
:1012000001900CD0FFE7089800684FF64831CBF604
:10121000FD710844B0FA80F040090190FFE70198A1
:10122000C00750B3FFE70898C06D00F01F013F20D2
:1012300088400499886008980168086820F4802034
:1012400008600598089909684860089880684028EF
:1012500009D1FFE7069808990968886007980899F6
:101260000968C86008E007980899096888600698C6
:1012700008990968C860FFE7DEE008980168012066
:1012800042F60842C4F602029142009000F0AA80A1
:10129000FFE708980168012042F61C42C4F60202EA
:1012A0009142009000F09E80FFE7089801680120BD
:1012B00042F63042C4F602029142009000F0928061
:1012C000FFE708980168012042F64442C4F6020292
:1012D0009142009000F08680FFE7089801680120A5
:1012E00042F65842C4F60202914200907AD0FFE7DB
:1012F00008980168012042F66C42C4F6020291424D
:1013000000906FD0FFE708980168012042F6804204
:10131000C4F602029142009064D0FFE70898016889
:10132000012042F69442C4F602029142009059D044
:10133000FFE708980168012045F20842C5F602025D
:10134000914200904ED0FFE708980168012045F2D5
:101350001C42C5F602029142009043D0FFE7089874
:101360000168012045F23042C5F602029142009028
:1013700038D0FFE708980168012045F24442C5F6DD
:101380000202914200902DD0FFE7089801680120E9
:1013900045F25842C5F602029142009022D0FFE782
:1013A00008980168012045F26C42C5F6020291429C
:1013B000009017D0FFE708980168012045F28042AD
:1013C000C5F60202914200900CD0FFE70898006831
:1013D0004AF66C31CAF2FD710844B0FA80F0400957
:1013E0000090FFE70098C00720B3FFE70898C06DA2
:1013F00000F01F0101208840039948600598089972
:101400000968486008988068402809D1FFE7069875
:10141000089909688860079808990968C86008E011
:101420000798089909688860069808990968C8604B
:10143000FFE700E0FFE7FFE709B0704700000000AA
:10144000704700000000000080B5022003F0D0FFCC
:1014500080BD00000000000081B0EFF3108072B684
:101460000090FFE7FEE7000070470000000000006A
:1014700080B586B004900391039820B1FFE70398EC
:10148000012801D1FFE708E042F69100C0F6010013
:1014900040F2F3610FF0A8FDFFE704980399C1EB58
:1014A000C10100EB8100408D08B9FFE708E042F67A
:1014B0009100C0F6010040F2F4610FF095FDFFE7E6
:1014C00004984068B0F5403F00F0B080FFE7049812
:1014D0000399C1EBC10100EB8100C06A00286ED006
:1014E000FFE704980399C1EBC10100EB8100C06ADA
:1014F000012864D0FFE704980399C1EBC10100EB18
:101500008100C06A02285AD0FFE704980399C1EB12
:10151000C10100EB8100C06A032850D0FFE70498A6
:101520000399C1EBC10100EB8100C06A042846D0D9
:10153000FFE704980399C1EBC10100EB8100C06A89
:1015400005283CD0FFE704980399C1EBC10100EBEB
:101550008100C06A062832D0FFE704980399C1EBE6
:10156000C10100EB8100C06A072828D0FFE704987A
:101570000399C1EBC10100EB8100C06A08281ED0AD
:10158000FFE704980399C1EBC10100EB8100C06A39
:10159000092814D0FFE704980399C1EBC10100EBBF
:1015A0008100C06A0A280AD0FFE704980399C1EBBA
:1015B000C10100EB8100C06A0B2801D1FFE708E000
:1015C00042F69100C0F6010040F2F7610FF00CFD09
:1015D000FFE70498406840B3FFE704980399C1EB24
:1015E000C10100EB8100006BA0B1FFE704980399F3
:1015F000C1EBC10100EB8100006B01280AD0FFE7BD
:1016000004980399C1EBC10100EB8100006B022833
:1016100001D1FFE708E042F69100C0F6010040F278
:10162000FA610FF0E1FCFFE7FFE7FFE70498039999
:10163000C1EBC10100EB8100806B50B1FFE7049862
:101640000399C1EBC10100EB8100806B012801D13E
:10165000FFE708E042F69100C0F6010040F2FD61AC
:101660000FF0C2FCFFE704980399C1EBC10100EB46
:101670008100C06B50B1FFE704980399C1EBC10131
:1016800000EB8100C06B012801D1FFE708E042F6C2
:101690009100C0F6010040F2FE610FF0A5FCFFE7EB
:1016A0000398012832D1FFE704980399C1EBC101E7
:1016B00000EB8100C06A0B2828D1FFE7049803994A
:1016C000C1EBC10100EB8100006CA0B1FFE7049801
:1016D0000399C1EBC10100EB8100006C01280AD025
:1016E000FFE704980399C1EBC10100EB8100006C96
:1016F000022801D1FFE708E042F69100C0F60100A0
:1017000040F202710FF070FCFFE7FFE7FFE704987B
:1017100090F86000012804D1FFE702208DF817003F
:101720009EE00499012081F86000FFE7FFE704993B
:10173000022081F8610004980399C1EBC10100EB1C
:10174000810028300290029948688B680A694969CB
:1017500040EA034040EA025040EA415000900F2026
:10176000CFF633700190029840680A2805D0FFE751
:1017700002984068092807D1FFE70298C17B0098CA
:1017800040EA0160009006E00298C168009840EAD3
:1017900001600090FFE7039810BBFFE70498006822
:1017A000406A01998843009908430499096848628E
:1017B00002980068049909688861029840680A28BC
:1017C00005D0FFE702984068092808D1FFE7029892
:1017D000C06820F07F40049909688862FFE731E023
:1017E000029840680B280BD1FFE7029881690098A6
:1017F00040EA81400090019840F440200190FFE7CA
:1018000004980068C06901998843009908430499C5
:101810000968C8610298006804990968086102981B
:1018200040680A2805D0FFE702984068092808D1D7
:10183000FFE70298C06820F07F40049909680862B9
:10184000FFE7FFE70499012081F86100FFE70499B1
:10185000002081F86000FFE700208DF81700FFE707
:101860009DF8170006B080BD80B582B0009000984A
:1018700020B9FFE701208DF8070003E10098006818
:1018800041F20001C5F20021884201D1FFE707E0E3
:1018900042F69100C0F60100F7210FF0A5FBFFE72B
:1018A00000984068F0B1FFE700984068B0F5803FCD
:1018B00018D0FFE700984068B0F5003F12D0FFE76E
:1018C00000984068B0F5403F0CD0FFE700984068B2
:1018D000B0F5802F06D0FFE700984068B0F5A02F44
:1018E00001D1FFE707E042F69100C0F60100F821C0
:1018F0000FF07AFBFFE700988068A0B1FFE700983F
:10190000806801280FD0FFE70098806802280AD07D
:10191000FFE700988068032805D0FFE700988068FB
:10192000042801D1FFE707E042F69100C0F601006C
:10193000F9210FF059FBFFE70098C08908B9FFE7CC
:1019400007E042F69100C0F60100FA210FF04CFBCF
:10195000FFE70098006928B1FFE7009800690128B7
:1019600001D1FFE707E042F69100C0F60100FB213C
:101970000FF03AFBFFE70098406928B1FFE70098B5
:101980004069012801D1FFE707E042F69100C0F667
:101990000100FC210FF028FBFFE70098C06928B187
:1019A000FFE70098C069402801D1FFE707E042F651
:1019B0009100C0F60100FD210FF016FBFFE7009833
:1019C000806930B1FFE700988069B0F5807F01D170
:1019D000FFE707E042F69100C0F60100FE210FF09C
:1019E00003FBFFE7009890F8610040B9FFE700991A
:1019F000002081F86000009800F04AF8FFE70099A5
:101A0000022081F861000098006800684FF6BF71FD
:101A1000CFF6F8710840009B19685A68DB691A43D1
:101A20001043086000980068406B40F2071188433B
:101A3000009B19689A689B691A4310434863009891
:101A40000068006C4FF6FF718843009A1168D268F5
:101A50001043086400980068406B20F44010009B1D
:101A600019681A695B69120542EA435210434863D8
:101A7000009900204866009A012182F861108DF8D3
:101A80000700FFE79DF8070002B080BD00000000DE
:101A900082B001900198006841F20001C5F2002176
:101AA000884210D1FFE7FFE744F23450C5F6020048
:101AB000016841F010010160006800F01000009022
:101AC0000098FFE7FFE702B0704700000000000049
:101AD00080B58AB0089004F04BF80490089828B9B3
:101AE000FFE701208DF8270000F0AABC089890F8C5
:101AF000350002280ED0FFE7089980204865FFE7EF
:101B00000899002081F83400FFE701208DF82700B4
:101B100000F096BC0898016801201022C4F202026D
:101B20009142039000F0A380FFE70898016801202C
:101B30002822C4F202029142039000F09880FFE74D
:101B40000898016801204022C4F2020291420390E9
:101B500000F08D80FFE70898016801205822C4F248
:101B600002029142039000F08280FFE7089801682A
:101B700001207022C4F202029142039077D0FFE765
:101B80000898016801208822C4F202029142039061
:101B90006DD0FFE7089801680120A022C4F202027C
:101BA0009142039063D0FFE7089801680120B822B2
:101BB000C4F202029142039059D0FFE708980168ED
:101BC000012040F21042C4F20202914203904ED032
:101BD000FFE708980168012040F22842C4F202029F
:101BE0009142039043D0FFE708980168012040F23A
:101BF0004042C4F202029142039038D0FFE70898B5
:101C00000168012040F25842C4F20202914203905E
:101C10002DD0FFE708980168012040F27042C4F21D
:101C200002029142039022D0FFE708980168012048
:101C300040F28842C4F202029142039017D0FFE7BB
:101C400008980168012040F2A042C4F202029142C9
:101C500003900CD0FFE7089800684FF64831CBF6A8
:101C6000FD710844B0FA80F040090390FFE7039843
:101C7000C00780B1FFE708980168086820F01E00DF
:101C8000086008980168486920F080004861089859
:101C90000068059009E008980168086820F00E00C7
:101CA0000860089800680590FFE70898016801201F
:101CB0001022C4F202029142029000F00381FFE779
:101CC0000898016801202822C4F202029142029081
:101CD00000F0F880FFE70898016801204022C4F274
:101CE00002029142029000F0ED80FFE7089801683F
:101CF00001205822C4F202029142029000F0E280D8
:101D0000FFE70898016801207022C4F202029142A4
:101D1000029000F0D780FFE7089801680120882230
:101D2000C4F202029142029000F0CC80FFE70898D2
:101D300001680120A022C4F202029142029000F048
:101D4000C180FFE7089801680120B822C4F20202AE
:101D50009142029000F0B680FFE7089801680120E8
:101D600040F21042C4F202029142029000F0AA80B6
:101D7000FFE708980168012040F22842C4F20202FD
:101D80009142029000F09E80FFE7089801680120D0
:101D900040F24042C4F202029142029000F092806E
:101DA000FFE708980168012040F25842C4F202029D
:101DB0009142029000F08680FFE7089801680120B8
:101DC00040F27042C4F20202914202907AD0FFE7E0
:101DD00008980168012040F28842C4F20202914250
:101DE00002906FD0FFE708980168012040F2A042FE
:101DF000C4F202029142029064D0FFE708980168A1
:101E0000012040F2B842C4F202029142029059D03D
:101E1000FFE708980168012045F20842C5F6020272
:101E2000914202904ED0FFE708980168012045F2E8
:101E30001C42C5F602029142029043D0FFE7089887
:101E40000168012045F23042C5F60202914202903B
:101E500038D0FFE708980168012045F24442C5F6F2
:101E60000202914202902DD0FFE7089801680120FC
:101E700045F25842C5F602029142029022D0FFE795
:101E800008980168012045F26C42C5F602029142B1
:101E9000029017D0FFE708980168012045F28042C0
:101EA000C5F60202914202900CD0FFE70898006844
:101EB0004AF66C31CAF2FD710844B0FA80F040096C
:101EC0000290FFE70298C00738B1FFE70898016E5B
:101ED000086820F480700860FFE708980068102107
:101EE000C4F20201884200F08180FFE70898006890
:101EF0002821C4F20201884278D0FFE708980068E0
:101F00004021C4F20201884270D0FFE708980068BF
:101F10005821C4F20201884268D0FFE7089800689F
:101F20007021C4F20201884260D0FFE7089800687F
:101F30008821C4F20201884258D0FFE7089800685F
:101F4000A021C4F20201884250D0FFE7089800683F
:101F5000B821C4F20201884248D0FFE7089800681F
:101F600040F21041C4F2020188423FD0FFE70898D6
:101F7000006840F22841C4F20201884236D0FFE7EF
:101F80000898006840F24041C4F2020188422DD016
:101F9000FFE70898006840F25841C4F20201884205
:101FA00024D0FFE70898006840F27041C4F20201B3
:101FB00088421BD0FFE70898006840F28841C4F2CD
:101FC0000201884212D0FFE70898006840F2A04161
:101FD000C4F20201884209D0FFE70898006840F285
:101FE000B841C4F20201884207D1FFE708980168AE
:101FF000086820F00100086006E008980168086899
:1020000020F001000860FFE7FFE705980068C007BF
:10201000C8B1FFE703F0ACFD0499401A062811D3BC
:10202000FFE70899202048650899032081F83500CA
:10203000FFE70899002081F83400FFE701208DF8C0
:102040002700FDE1E1E70898016801201022C4F2B1
:1020500002029142019000F0A380FFE70898016816
:1020600001202822C4F202029142019000F09880DF
:10207000FFE70898016801204022C4F20202914261
:10208000019000F08D80FFE7089801680120582238
:10209000C4F202029142019000F08280FFE70898AA
:1020A000016801207022C4F202029142019077D0AF
:1020B000FFE70898016801208822C4F202029142D9
:1020C00001906DD0FFE7089801680120A022C4F2BA
:1020D00002029142019063D0FFE708980168012055
:1020E000B822C4F202029142019059D0FFE7089849
:1020F0000168012040F21042C4F2020291420190B4
:102100004ED0FFE708980168012040F22842C4F24F
:1021100002029142019043D0FFE708980168012034
:1021200040F24042C4F202029142019038D0FFE7EF
:1021300008980168012040F25842C4F2020291421C
:1021400001902DD0FFE708980168012040F270420D
:10215000C4F202029142019022D0FFE70898016880
:10216000012040F28842C4F202029142019017D04D
:10217000FFE708980168012040F2A042C4F2020281
:10218000914201900CD0FFE7089800684FF6483163
:10219000CBF6FD710844B0FA80F040090190FFE7EA
:1021A0000198C00760B1FFE70898806D0790089814
:1021B000C06D00F01F013F208840079988600BE048
:1021C0000898806D06900898C06D00F01F010120EE
:1021D000884006994860FFE70898016801201022AE
:1021E000C4F202029142009000F00381FFE70898D8
:1021F000016801202822C4F202029142009000F0FE
:10220000F880FFE70898016801204022C4F202022A
:102210009142009000F0ED80FFE7089801680120EE
:102220005822C4F202029142009000F0E280FFE7DF
:102230000898016801207022C4F2020291420090C5
:1022400000F0D780FFE70898016801208822C4F2D7
:1022500002029142009000F0CC80FFE708980168EC
:102260000120A022C4F202029142009000F0C1803D
:10227000FFE7089801680120B822C4F202029142E7
:10228000009000F0B680FFE708980168012040F256
:102290001042C4F202029142009000F0AA80FFE7CF
:1022A00008980168012040F22842C4F202029142DB
:1022B000009000F09E80FFE708980168012040F23E
:1022C0004042C4F202029142009000F09280FFE787
:1022D00008980168012040F25842C4F2020291427B
:1022E000009000F08680FFE708980168012040F226
:1022F0007042C4F20202914200907AD0FFE708983F
:102300000168012040F28842C4F20202914200902A
:102310006FD0FFE708980168012040F2A042C4F2A4
:1023200002029142009064D0FFE708980168012002
:1023300040F2B842C4F202029142009059D0FFE745
:1023400008980168012045F20842C5F60202914250
:1023500000904ED0FFE708980168012045F21C422A
:10236000C5F602029142009043D0FFE70898016849
:10237000012045F23042C5F602029142009038D069
:10238000FFE708980168012045F24442C5F60202C1
:10239000914200902DD0FFE708980168012045F296
:1023A0005842C5F602029142009022D0FFE70898F9
:1023B0000168012045F26C42C5F60202914200908C
:1023C00017D0FFE708980168012045F28042C5F662
:1023D0000202914200900CD0FFE7089800684AF68C
:1023E0006C31CAF2FD710844B0FA80F040090090E7
:1023F000FFE70098C007A0B1FFE70898416E806E24
:1024000048600898C06E58B1FFE70898C16E086828
:1024100020F4807008600898016F406F4860FFE703
:10242000FFE70899012081F83500FFE708990020AF
:1024300081F83400FFE7FFE700208DF82700FFE771
:102440009DF827000AB080BD80B586B0049004983E
:1024500020B9FFE701208DF8170046E3049890F8B3
:102460003500022807D0FFE7049980204865012045
:102470008DF8170039E30498016801201022C4F296
:1024800002029142029000F0A380FFE704980168E5
:1024900001202822C4F202029142029000F09880AA
:1024A000FFE70498016801204022C4F20202914231
:1024B000029000F08D80FFE7049801680120582207
:1024C000C4F202029142029000F08280FFE7049879
:1024D000016801207022C4F202029142029077D07A
:1024E000FFE70498016801208822C4F202029142A9
:1024F00002906DD0FFE7049801680120A022C4F289
:1025000002029142029063D0FFE704980168012023
:10251000B822C4F202029142029059D0FFE7049817
:102520000168012040F21042C4F20202914202907E
:102530004ED0FFE704980168012040F22842C4F21F
:1025400002029142029043D0FFE704980168012003
:1025500040F24042C4F202029142029038D0FFE7BA
:1025600004980168012040F25842C4F202029142EC
:1025700002902DD0FFE704980168012040F27042DC
:10258000C4F202029142029022D0FFE7049801684F
:10259000012040F28842C4F202029142029017D018
:1025A000FFE704980168012040F2A042C4F2020251
:1025B000914202900CD0FFE7049800684FF6483132
:1025C000CBF6FD710844B0FA80F040090290FFE7B5
:1025D0000298C007002800F09D80FFE704990420BE
:1025E00081F83500049800681021C4F20201884285
:1025F00000F08180FFE7049800682821C4F20201FE
:10260000884278D0FFE7049800684021C4F20201B4
:10261000884270D0FFE7049800685821C4F2020194
:10262000884268D0FFE7049800687021C4F2020174
:10263000884260D0FFE7049800688821C4F2020154
:10264000884258D0FFE704980068A021C4F2020134
:10265000884250D0FFE704980068B821C4F2020114
:10266000884248D0FFE70498006840F21041C4F265
:10267000020188423FD0FFE70498006840F22841F9
:10268000C4F20201884236D0FFE70498006840F2A5
:102690004041C4F2020188422DD0FFE7049800684F
:1026A00040F25841C4F20201884224D0FFE7049866
:1026B000006840F27041C4F2020188421BD0FFE77B
:1026C0000498006840F28841C4F20201884212D0A6
:1026D000FFE70498006840F2A041C4F2020188427A
:1026E00009D0FFE70498006840F2B841C4F2020143
:1026F000884207D1FFE704980168086820F00100CC
:10270000086006E004980168086820F0010008608D
:10271000FFE7E5E104980168086820F00E00086012
:10272000049800681021C4F20201884200F0818000
:10273000FFE7049800682821C4F20201884278D09B
:10274000FFE7049800684021C4F20201884270D07B
:10275000FFE7049800685821C4F20201884268D05B
:10276000FFE7049800687021C4F20201884260D03B
:10277000FFE7049800688821C4F20201884258D01B
:10278000FFE704980068A021C4F20201884250D0FB
:10279000FFE704980068B821C4F20201884248D0DB
:1027A000FFE70498006840F21041C4F20201884239
:1027B0003FD0FFE70498006840F22841C4F20201CC
:1027C000884236D0FFE70498006840F24041C4F2E6
:1027D000020188422DD0FFE70498006840F258417A
:1027E000C4F20201884224D0FFE70498006840F256
:1027F0007041C4F2020188421BD0FFE704980068D0
:1028000040F28841C4F20201884212D0FFE70498E6
:10281000006840F2A041C4F20201884209D0FFE7FB
:102820000498006840F2B841C4F20201884207D11E
:10283000FFE704980168086820F00100086006E0DE
:1028400004980168086820F001000860FFE7049818
:10285000016801201022C4F202029142019000F0AE
:102860000381FFE70498016801202822C4F20202D4
:102870009142019000F0F880FFE704980168012080
:102880004022C4F202029142019000F0ED80FFE785
:102890000498016801205822C4F20202914201907A
:1028A00000F0E280FFE70498016801207022C4F282
:1028B00002029142019000F0D780FFE7049801687E
:1028C00001208822C4F202029142019000F0CC80E3
:1028D000FFE7049801680120A022C4F2020291429D
:1028E000019000F0C180FFE7049801680120B82240
:1028F000C4F202029142019000F0B680FFE7049812
:102900000168012040F21042C4F20202914201909B
:1029100000F0AA80FFE704980168012040F22842F5
:10292000C4F202029142019000F09E80FFE70498F9
:102930000168012040F24042C4F20202914201903B
:1029400000F09280FFE704980168012040F25842AD
:10295000C4F202029142019000F08680FFE70498E1
:102960000168012040F27042C4F2020291420190DB
:102970007AD0FFE704980168012040F28842C4F24F
:102980000202914201906FD0FFE704980168012094
:1029900040F2A042C4F202029142019064D0FFE7EB
:1029A00004980168012040F2B842C4F20202914248
:1029B000019059D0FFE704980168012045F20842D0
:1029C000C5F60202914201904ED0FFE704980168DB
:1029D000012045F21C42C5F602029142019043D00B
:1029E000FFE704980168012045F23042C5F6020273
:1029F0009142019038D0FFE704980168012045F228
:102A00004442C5F60202914201902DD0FFE704989E
:102A10000168012045F25842C5F602029142019038
:102A200022D0FFE704980168012045F26C42C5F608
:102A300002029142019017D0FFE70498016801203B
:102A400045F28042C5F60202914201900CD0FFE7A8
:102A5000049800684AF66C31CAF2FD710844B0FA75
:102A600080F040090190FFE70198C00728B3FFE715
:102A70000498016E086820F4807008600498806DE6
:102A800003900498C06D00F01F0101208840039955
:102A900048600498416E806E48600498C06E58B1DA
:102AA000FFE70498C16E086820F4807008600498FD
:102AB000016F406F4860FFE7FFE70499012081F84C
:102AC0003500FFE70499002081F83400FFE70498FF
:102AD000006D20B1FFE70498016D8847FFE7FFE72D
:102AE000FFE700208DF81700FFE79DF8170006B0FC
:102AF00080BD00000000000080B590B00F90002065
:102B00000B9040F20000C2F20000006848F2B511DC
:102B1000C1F64E31A0FB0110800A0A900F98806D1B
:102B200009900F98806D0890099800680E90089899
:102B300000680D900F98016801201022C4F2020273
:102B40009142079000F0A380FFE70F9801680120F1
:102B50002822C4F202029142079000F09880FFE719
:102B60000F98016801204022C4F2020291420790AE
:102B700000F08D80FFE70F98016801205822C4F211
:102B800002029142079000F08280FFE70F980168EF
:102B900001207022C4F202029142079077D0FFE731
:102BA0000F98016801208822C4F202029142079026
:102BB0006DD0FFE70F9801680120A022C4F2020245
:102BC0009142079063D0FFE70F9801680120B82277
:102BD000C4F202029142079059D0FFE70F980168B2
:102BE000012040F21042C4F20202914207904ED0FE
:102BF000FFE70F980168012040F22842C4F2020268
:102C00009142079043D0FFE70F980168012040F2FE
:102C10004042C4F202029142079038D0FFE70F9879
:102C20000168012040F25842C4F20202914207902A
:102C30002DD0FFE70F980168012040F27042C4F2E6
:102C400002029142079022D0FFE70F98016801200D
:102C500040F28842C4F202029142079017D0FFE787
:102C60000F980168012040F2A042C4F20202914292
:102C700007900CD0FFE70F9800684FF64831CBF66D
:102C8000FD710844B0FA80F040090790FFE707980B
:102C9000C007002800F01385FFE70E980F99C96D53
:102CA00001F01F01C8400007002840F1B080FFE795
:102CB0000F9800681021C4F20201884200F0818060
:102CC000FFE70F9800682821C4F20201884278D0FB
:102CD000FFE70F9800684021C4F20201884270D0DB
:102CE000FFE70F9800685821C4F20201884268D0BB
:102CF000FFE70F9800687021C4F20201884260D09B
:102D0000FFE70F9800688821C4F20201884258D07A
:102D1000FFE70F980068A021C4F20201884250D05A
:102D2000FFE70F980068B821C4F20201884248D03A
:102D3000FFE70F98006840F21041C4F20201884298
:102D40003FD0FFE70F98006840F22841C4F202012B
:102D5000884236D0FFE70F98006840F24041C4F245
:102D6000020188422DD0FFE70F98006840F25841D9
:102D7000C4F20201884224D0FFE70F98006840F2B5
:102D80007041C4F2020188421BD0FFE70F9800682F
:102D900040F28841C4F20201884212D0FFE70F9846
:102DA000006840F2A041C4F20201884209D0FFE766
:102DB0000F98006840F2B841C4F20201884207D17E
:102DC000FFE70F980068006800F00400069006E036
:102DD0000F980068006800F008000690FFE706986A
:102DE000A0B1FFE70F980168086820F004000860B0
:102DF0000F98C06D00F01F01082088400999886075
:102E00000F99486D40F001004865FFE7FFE70E9815
:102E10000F99C96D01F01F01C840C007002800F0DC
:102E2000A980FFE70F9800681021C4F202018842D0
:102E300000F08180FFE70F9800682821C4F20201AA
:102E4000884278D0FFE70F9800684021C4F2020161
:102E5000884270D0FFE70F9800685821C4F2020141
:102E6000884268D0FFE70F9800687021C4F2020121
:102E7000884260D0FFE70F9800688821C4F2020101
:102E8000884258D0FFE70F980068A021C4F20201E1
:102E9000884250D0FFE70F980068B821C4F20201C1
:102EA000884248D0FFE70F98006840F21041C4F212
:102EB000020188423FD0FFE70F98006840F22841A6
:102EC000C4F20201884236D0FFE70F98006840F252
:102ED0004041C4F2020188422DD0FFE70F980068FC
:102EE00040F25841C4F20201884224D0FFE70F9813
:102EF000006840F27041C4F2020188421BD0FFE733
:102F00000F98006840F28841C4F20201884212D052
:102F1000FFE70F98006840F2A041C4F20201884226
:102F200009D0FFE70F98006840F2B841C4F20201EF
:102F3000884207D1FFE70F980068406900F08000E1
:102F4000059005E00F980068006800200590FFE7F5
:102F5000059870B1FFE70F98C06D00F01F010120C8
:102F60008840099988600F99486D40F002004865D3
:102F7000FFE7FFE70E980F99C96D01F01F01C840E8
:102F80004007002840F1A980FFE70F980068102152
:102F9000C4F20201884200F08180FFE70F980068C8
:102FA0002821C4F20201884278D0FFE70F98006818
:102FB0004021C4F20201884270D0FFE70F980068F8
:102FC0005821C4F20201884268D0FFE70F980068D8
:102FD0007021C4F20201884260D0FFE70F980068B8
:102FE0008821C4F20201884258D0FFE70F98006898
:102FF000A021C4F20201884250D0FFE70F98006878
:10300000B821C4F20201884248D0FFE70F98006857
:1030100040F21041C4F2020188423FD0FFE70F980E
:10302000006840F22841C4F20201884236D0FFE72E
:103030000F98006840F24041C4F2020188422DD04E
:10304000FFE70F98006840F25841C4F2020188423D
:1030500024D0FFE70F98006840F27041C4F20201EB
:1030600088421BD0FFE70F98006840F28841C4F205
:103070000201884212D0FFE70F98006840F2A04199
:10308000C4F20201884209D0FFE70F98006840F2BD
:10309000B841C4F20201884207D1FFE70F980068E7
:1030A000006800F00200049005E00F9800680068D6
:1030B00000200490FFE7049870B1FFE70F98C06DFF
:1030C00000F01F0104208840099988600F99486D1D
:1030D00040F004004865FFE7FFE70E980F99C96DBF
:1030E00001F01F01C840C006002840F1DE80FFE764
:1030F0000F9800681021C4F20201884200F081801C
:10310000FFE70F9800682821C4F20201884278D0B6
:10311000FFE70F9800684021C4F20201884270D096
:10312000FFE70F9800685821C4F20201884268D076
:10313000FFE70F9800687021C4F20201884260D056
:10314000FFE70F9800688821C4F20201884258D036
:10315000FFE70F980068A021C4F20201884250D016
:10316000FFE70F980068B821C4F20201884248D0F6
:10317000FFE70F98006840F21041C4F20201884254
:103180003FD0FFE70F98006840F22841C4F20201E7
:10319000884236D0FFE70F98006840F24041C4F201
:1031A000020188422DD0FFE70F98006840F2584195
:1031B000C4F20201884224D0FFE70F98006840F271
:1031C0007041C4F2020188421BD0FFE70F980068EB
:1031D00040F28841C4F20201884212D0FFE70F9802
:1031E000006840F2A041C4F20201884209D0FFE722
:1031F0000F98006840F2B841C4F20201884207D13A
:10320000FFE70F980068006800F00800039006E0F0
:103210000F980068006800F004000390FFE703982F
:10322000002841D0FFE70F98C06D00F01F0110206B
:103230008840099988600F9800680068400300285A
:103240001AD5FFE70F98006800680003002809D42A
:10325000FFE70F98006C20B1FFE70F98016C8847DB
:10326000FFE708E00F98806C20B1FFE70F98816CB2
:103270008847FFE7FFE716E00F9800680068C00581
:10328000002807D4FFE70F980168086820F00800BD
:103290000860FFE70F98006C20B1FFE70F98016C02
:1032A0008847FFE7FFE7FFE7FFE70E980F99C96D33
:1032B00001F01F01C8408006002840F12681FFE789
:1032C0000F9800681021C4F20201884200F081804A
:1032D000FFE70F9800682821C4F20201884278D0E5
:1032E000FFE70F9800684021C4F20201884270D0C5
:1032F000FFE70F9800685821C4F20201884268D0A5
:10330000FFE70F9800687021C4F20201884260D084
:10331000FFE70F9800688821C4F20201884258D064
:10332000FFE70F980068A021C4F20201884250D044
:10333000FFE70F980068B821C4F20201884248D024
:10334000FFE70F98006840F21041C4F20201884282
:103350003FD0FFE70F98006840F22841C4F2020115
:10336000884236D0FFE70F98006840F24041C4F22F
:10337000020188422DD0FFE70F98006840F25841C3
:10338000C4F20201884224D0FFE70F98006840F29F
:103390007041C4F2020188421BD0FFE70F98006819
:1033A00040F28841C4F20201884212D0FFE70F9830
:1033B000006840F2A041C4F20201884209D0FFE750
:1033C0000F98006840F2B841C4F20201884207D168
:1033D000FFE70F980068006800F01000029006E018
:1033E0000F980068006800F002000290FFE7029862
:1033F000002800F08980FFE70F98C06D00F01F01E2
:1034000020208840099988600F9890F8350004289A
:1034100037D1FFE70F980168086820F016000860B0
:103420000F980168486920F0800048610F98006C8F
:1034300020B9FFE70F98806C38B1FFE70F9801685B
:10344000086820F008000860FFE70F98C06D00F0E2
:103450001F013F208840099988600F99012081F859
:103460003500FFE70F99002081F83400FFE70F983F
:10347000006D20B1FFE70F98016D8847FFE700F06E
:1034800075BC0F9800680068400300281AD5FFE754
:103490000F98006800680003002809D4FFE70F9820
:1034A000406C20B1FFE70F98416C8847FFE708E0C8
:1034B0000F98C06B20B1FFE70F98C16B8847FFE7FB
:1034C000FFE720E00F9800680068C005002811D4CD
:1034D000FFE70F980168086820F0100008600F9956
:1034E000012081F83500FFE70F99002081F83400B2
:1034F000FFE7FFE70F98C06B20B1FFE70F98C16BA4
:103500008847FFE7FFE7FFE7FFE70F98406D0028D8
:1035100000F0D480FFE70F98406DC007002800F04E
:10352000C480FFE70F99042081F835000F980068E8
:103530001021C4F20201884200F08180FFE70F9859
:1035400000682821C4F20201884278D0FFE70F9872
:1035500000684021C4F20201884270D0FFE70F9852
:1035600000685821C4F20201884268D0FFE70F9832
:1035700000687021C4F20201884260D0FFE70F9812
:1035800000688821C4F20201884258D0FFE70F98F2
:103590000068A021C4F20201884250D0FFE70F98D2
:1035A0000068B821C4F20201884248D0FFE70F98B2
:1035B000006840F21041C4F2020188423FD0FFE7A8
:1035C0000F98006840F22841C4F20201884236D0C8
:1035D000FFE70F98006840F24041C4F202018842C0
:1035E0002DD0FFE70F98006840F25841C4F2020165
:1035F000884224D0FFE70F98006840F27041C4F27F
:10360000020188421BD0FFE70F98006840F2884112
:10361000C4F20201884212D0FFE70F98006840F21E
:10362000A041C4F20201884209D0FFE70F98006868
:1036300040F2B841C4F20201884207D1FFE70F9877
:103640000168086820F00100086006E00F98016832
:10365000086820F001000860FFE7FFE70B980130E1
:103660000B900A99884201D9FFE707E0FFE70F981E
:1036700000680068C0070028F0D1FFE70F980068D5
:103680000068C00728B1FFE70F99032081F83500D3
:1036900004E00F99012081F83500FFE7FFE70F995B
:1036A000002081F83400FFE7FFE70F98C06C20B1DD
:1036B000FFE70F98C16C8847FFE7FFE756E30F98D5
:1036C0000168012042F60842C4F6020291420190CC
:1036D00000F0AA80FFE70F980168012042F61C4223
:1036E000C4F602029142019000F09E80FFE70F981D
:1036F0000168012042F63042C4F602029142019074
:1037000000F09280FFE70F980168012042F64442E2
:10371000C4F602029142019000F08680FFE70F9804
:103720000168012042F65842C4F60202914201901B
:103730007AD0FFE70F980168012042F66C42C4F688
:103740000202914201906FD0FFE70F9801680120BB
:1037500042F68042C4F602029142019064D0FFE733
:103760000F980168012042F69442C4F60202914289
:10377000019059D0FFE70F980168012045F20842F7
:10378000C5F60202914201904ED0FFE70F98016802
:10379000012045F21C42C5F602029142019043D03D
:1037A000FFE70F980168012045F23042C5F602029A
:1037B0009142019038D0FFE70F980168012045F24F
:1037C0004442C5F60202914201902DD0FFE70F98C6
:1037D0000168012045F25842C5F60202914201906B
:1037E00022D0FFE70F980168012045F26C42C5F630
:1037F00002029142019017D0FFE70F980168012063
:1038000045F28042C5F60202914201900CD0FFE7DA
:103810000F9800684AF66C31CAF2FD710844B0FA9C
:1038200080F040090190FFE70198C007002800F0F0
:103830009B82FFE70F98006800680C900D980F9925
:10384000C96D01F01F01C8404007002840F1D78032
:10385000FFE79DF830004007002840F1D080FFE7E7
:103860000F98C06D00F01F0104208840089948603F
:103870009DF831000006002818D5FFE79DF83200BA
:10388000C00748B9FFE70F98806C20B1FFE70F9899
:10389000816C8847FFE708E00F98006C20B1FFE7D4
:1038A0000F98016C8847FFE7FFE7A7E09DF830001D
:1038B0008006002800F19980FFE70F98006810212A
:1038C000C4F20201884200F08180FFE70F9800688F
:1038D0002821C4F20201884278D0FFE70F980068DF
:1038E0004021C4F20201884270D0FFE70F980068BF
:1038F0005821C4F20201884268D0FFE70F9800689F
:103900007021C4F20201884260D0FFE70F9800687E
:103910008821C4F20201884258D0FFE70F9800685E
:10392000A021C4F20201884250D0FFE70F9800683E
:10393000B821C4F20201884248D0FFE70F9800681E
:1039400040F21041C4F2020188423FD0FFE70F98D5
:10395000006840F22841C4F20201884236D0FFE7F5
:103960000F98006840F24041C4F2020188422DD015
:10397000FFE70F98006840F25841C4F20201884204
:1039800024D0FFE70F98006840F27041C4F20201B2
:1039900088421BD0FFE70F98006840F28841C4F2CC
:1039A0000201884212D0FFE70F98006840F2A04160
:1039B000C4F20201884209D0FFE70F98006840F284
:1039C000B841C4F20201884207D1FFE70F980168AD
:1039D000086820F00800086006E00F980168086891
:1039E00020F004000860FFE7FFE70F98006C20B1AB
:1039F000FFE70F98016C8847FFE7FFE7B3E10D98F9
:103A00000F99C96D01F01F01C8408007002840F1DF
:103A1000E180FFE79DF830008007002840F1DA8060
:103A2000FFE70F98C06D00F01F0102208840089941
:103A300048609DF831000006002818D5FFE79DF882
:103A40003200C00748B9FFE70F98406C20B1FFE78C
:103A50000F98416C8847FFE708E00F98C06B20B1D2
:103A6000FFE70F98C16B8847FFE7FFE7B1E09DF8DC
:103A700030008006002800F1A380FFE70F9800685F
:103A80001021C4F20201884200F08180FFE70F9804
:103A900000682821C4F20201884278D0FFE70F981D
:103AA00000684021C4F20201884270D0FFE70F98FD
:103AB00000685821C4F20201884268D0FFE70F98DD
:103AC00000687021C4F20201884260D0FFE70F98BD
:103AD00000688821C4F20201884258D0FFE70F989D
:103AE0000068A021C4F20201884250D0FFE70F987D
:103AF0000068B821C4F20201884248D0FFE70F985D
:103B0000006840F21041C4F2020188423FD0FFE752
:103B10000F98006840F22841C4F20201884236D072
:103B2000FFE70F98006840F24041C4F2020188426A
:103B30002DD0FFE70F98006840F25841C4F202010F
:103B4000884224D0FFE70F98006840F27041C4F229
:103B5000020188421BD0FFE70F98006840F28841BD
:103B6000C4F20201884212D0FFE70F98006840F2C9
:103B7000A041C4F20201884209D0FFE70F98006813
:103B800040F2B841C4F20201884207D1FFE70F9822
:103B90000168086820F01400086006E00F980168CA
:103BA000086820F00A000860FFE70F99012081F8FB
:103BB0003500FFE70F99002081F83400FFE7FFE7A9
:103BC0000F98C06B20B1FFE70F98C16B8847FFE7E4
:103BD000FFE7C7E00D980F99C96D01F01F01C840BC
:103BE0000007002840F1BC80FFE79DF83000000787
:103BF000002840F1B580FFE70F9800681021C4F25B
:103C00000201884200F08180FFE70F9800682821B8
:103C1000C4F20201884278D0FFE70F980068402183
:103C2000C4F20201884270D0FFE70F980068582163
:103C3000C4F20201884268D0FFE70F980068702143
:103C4000C4F20201884260D0FFE70F980068882123
:103C5000C4F20201884258D0FFE70F980068A02103
:103C6000C4F20201884250D0FFE70F980068B821E3
:103C7000C4F20201884248D0FFE70F98006840F282
:103C80001041C4F2020188423FD0FFE70F9800685C
:103C900040F22841C4F20201884236D0FFE70F9873
:103CA000006840F24041C4F2020188422DD0FFE793
:103CB0000F98006840F25841C4F20201884224D0B3
:103CC000FFE70F98006840F27041C4F20201884299
:103CD0001BD0FFE70F98006840F28841C4F2020150
:103CE000884212D0FFE70F98006840F2A041C4F26A
:103CF0000201884209D0FFE70F98006840F2B841FE
:103D0000C4F20201884207D1FFE70F9801680868F2
:103D100020F01C00086006E00F980168086820F099
:103D20000E000860FFE70F98C06D00F01F01012032
:103D300000FA01F1089A51600F9948650F9981F8CE
:103D40003500FFE70F99002081F83400FFE70F9856
:103D5000C06C20B1FFE70F98C16C8847FFE700E017
:103D6000FFE7FFE7FFE700E0FFE7FFE710B080BDF8
:103D700010B58EB00C9001F0FBFE0A900C9828B99B
:103D8000FFE701208DF8370000F068BF0C9800684D
:103D90001021C4F20201884200F02181FFE70C9853
:103DA00000682821C4F20201884200F01881FFE770
:103DB0000C9800684021C4F20201884200F00F8193
:103DC000FFE70C9800685821C4F20201884200F015
:103DD0000681FFE70C9800687021C4F20201884256
:103DE00000F0FD80FFE70C9800688821C4F2020112
:103DF000884200F0F480FFE70C980068A021C4F22C
:103E00000201884200F0EB80FFE70C980068B821BF
:103E1000C4F20201884200F0E280FFE70C980068DB
:103E200040F21041C4F20201884200F0D880FFE75E
:103E30000C98006840F22841C4F20201884200F068
:103E4000CE80FFE70C98006840F24041C4F20201C6
:103E5000884200F0C480FFE70C98006840F25841A7
:103E6000C4F20201884200F0BA80FFE70C980068B3
:103E700040F27041C4F20201884200F0B080FFE7D6
:103E80000C98006840F28841C4F20201884200F0B8
:103E9000A680FFE70C98006840F2A041C4F202013E
:103EA000884200F09C80FFE70C98006840F2B8411F
:103EB000C4F20201884200F09280FFE70C9800688B
:103EC00042F60841C4F60201884200F08880FFE70C
:103ED0000C98006842F61C41C4F6020188427ED06C
:103EE000FFE70C98006842F63041C4F602018842B0
:103EF00075D0FFE70C98006842F64441C4F6020111
:103F000088426CD0FFE70C98006842F65841C4F62E
:103F10000201884263D0FFE70C98006842F66C41CA
:103F2000C4F6020188425AD0FFE70C98006842F6B6
:103F30008041C4F60201884251D0FFE70C98006826
:103F400042F69441C4F60201884248D0FFE70C983B
:103F5000006845F20841C5F6020188423FD0FFE7FC
:103F60000C98006845F21C41C5F60201884236D023
:103F7000FFE70C98006845F23041C5F6020188421F
:103F80002DD0FFE70C98006845F24441C5F60201C8
:103F9000884224D0FFE70C98006845F25841C5F6E6
:103FA000020188421BD0FFE70C98006845F26C4183
:103FB000C5F60201884212D0FFE70C98006845F26E
:103FC0008041C5F60201884209D0FFE70C980068DD
:103FD00045F29441C5F60201884201D1FFE707E0AE
:103FE00042F64600C0F60100E6210CF0FDFFFFE7B7
:103FF0000C98806850B1FFE70C988068402805D085
:10400000FFE70C988068802801D1FFE707E042F6BF
:104010004600C0F60100E7210CF0E6FFFFE70C9830
:10402000C068B0F5007F04D0FFE70C98C06808B9FD
:10403000FFE707E042F64600C0F60100E8210CF079
:10404000D3FFFFE70C980069B0F5806F04D0FFE75D
:104050000C98006908B9FFE707E042F64600C0F691
:104060000100E9210CF0C0FFFFE70C98406960B146
:10407000FFE70C984069B0F5006F06D0FFE70C9899
:104080004069B0F5805F01D1FFE707E042F64600E6
:10409000C0F60100EA210CF0A7FFFFE70C98806949
:1040A00060B1FFE70C988069B0F5005F06D0FFE7CC
:1040B0000C988069B0F5804F01D1FFE707E042F628
:1040C0004600C0F60100EB210CF08EFFFFE70C98D4
:1040D000C069B8B1FFE70C98C069B0F5807F11D016
:1040E000FFE70C98C06920280CD0FFE70C98C06946
:1040F000B0F5802F06D0FFE70C98C069B0F5402FCF
:1041000001D1FFE707E042F64600C0F60100EC21CE
:104110000CF06AFFFFE70C98006A90B1FFE70C987B
:10412000006AB0F5803F0CD0FFE70C98006AB0F54C
:10413000003F06D0FFE70C98006AB0F5403F01D180
:10414000FFE707E042F64600C0F60100ED210CF063
:104150004BFFFFE70C98016801201022C4F2020215
:104160009142079000F0A380FFE70C9801680120BE
:104170002822C4F202029142079000F09880FFE7E3
:104180000C98016801204022C4F20202914207907B
:1041900000F08D80FFE70C98016801205822C4F2DE
:1041A00002029142079000F08280FFE70C980168BC
:1041B00001207022C4F202029142079077D0FFE7FB
:1041C0000C98016801208822C4F2020291420790F3
:1041D0006DD0FFE70C9801680120A022C4F2020212
:1041E0009142079063D0FFE70C9801680120B82244
:1041F000C4F202029142079059D0FFE70C9801687F
:10420000012040F21042C4F20202914207904ED0C7
:10421000FFE70C980168012040F22842C4F2020234
:104220009142079043D0FFE70C980168012040F2CB
:104230004042C4F202029142079038D0FFE70C9846
:104240000168012040F25842C4F2020291420790F4
:104250002DD0FFE70C980168012040F27042C4F2B3
:1042600002029142079022D0FFE70C9801680120DA
:1042700040F28842C4F202029142079017D0FFE751
:104280000C980168012040F2A042C4F2020291425F
:1042900007900CD0FFE70C9800684FF64831CBF63A
:1042A000FD710844B0FA80F040090790FFE70798D5
:1042B000C007002800F0F381FFE70C9840687728DA
:1042C00001D8FFE707E042F64600C0F60100F12101
:1042D0000CF08AFEFFE70C98406A28B1FFE70C98C3
:1042E000406A042801D1FFE707E042F64600C0F625
:1042F0000100F2210CF078FEFFE70C98406A0028DC
:104300005BD0FFE70C98806A78B1FFE70C98806A71
:1043100001280AD0FFE70C98806A022805D0FFE741
:104320000C98806A032801D1FFE707E042F64600B7
:10433000C0F60100F7210CF057FEFFE70C98C06AA9
:1043400090B1FFE70C98C06AB0F5000F0CD0FFE702
:104350000C98C06AB0F1807F06D0FFE70C98C06A65
:10436000B0F1C07F01D1FFE707E042F64600C0F69A
:104370000100F8210CF038FEFFE70C98006B90B1BB
:10438000FFE70C98006BB0F5001F0CD0FFE70C980E
:10439000006BB0F5800F06D0FFE70C98006BB0F50E
:1043A000C00F01D1FFE707E042F64600C0F601006A
:1043B000F9210CF019FEFFE7FFE70C99022081F8C4
:1043C0003500FFE70C99002081F83400FFE70C98D6
:1043D00000681021C4F20201884200F08180FFE7EA
:1043E0000C9800682821C4F20201884278D0FFE7C7
:1043F0000C9800684021C4F20201884270D0FFE7A7
:104400000C9800685821C4F20201884268D0FFE786
:104410000C9800687021C4F20201884260D0FFE766
:104420000C9800688821C4F20201884258D0FFE746
:104430000C980068A021C4F20201884250D0FFE726
:104440000C980068B821C4F20201884248D0FFE706
:104450000C98006840F21041C4F2020188423FD03B
:10446000FFE70C98006840F22841C4F2020188423C
:1044700036D0FFE70C98006840F24041C4F20201D8
:1044800088422DD0FFE70C98006840F25841C4F2F2
:104490000201884224D0FFE70C98006840F2704186
:1044A000C4F2020188421BD0FFE70C98006840F27A
:1044B0008841C4F20201884212D0FFE70C980068DC
:1044C00040F2A041C4F20201884209D0FFE70C98F3
:1044D000006840F2B841C4F20201884207D1FFE708
:1044E0000C980168086820F00100086006E00C984C
:1044F0000168086820F001000860FFE7FFE70C98FA
:1045000000680068C00798B1FFE701F031FB0A9925
:10451000401A06280BD3FFE70C99202048650C9918
:10452000032081F8350001208DF8370096E3E6E797
:104530000C98006800680B900B9848F23F01CFF68A
:10454000106108400B900C998868D1F80CC00B6979
:104550004A6940EA0C00184310438A691043CA694B
:104560001043096A01430B9808430B900C98406A6A
:10457000042808D1FFE70C99C86A096B01430B981E
:1045800008430B90FFE70C984068292807D3FFE702
:104590000C98416801202F29069036D3FFE70C982C
:1045A00040683F2807D3FFE70C9841680120432962
:1045B00006902AD3FFE70C984068472807D3FFE707
:1045C0000C9841680120492906901ED3FFE70C98FA
:1045D00040684F2807D3FFE70C9841680120532912
:1045E000069012D3FFE70C984168002074290590CB
:1045F00008D3FFE70C9841680020782938BF0120D4
:104600000590FFE705980690FFE70698C00728B1D8
:10461000FFE70B9840F480100B90FFE70B980C9984
:10462000096808600C98006840690B900B9820F0AE
:1046300007000B900C98416A0B9808430B900C985C
:10464000406A04281AD1FFE70C98816A0B98084346
:104650000B900C98C06A80B1FFE70C98FCF790FBB8
:1046600050B1FFE70C99402048650C99012081F872
:1046700035008DF83700F1E2FFE7FFE70B980C9962
:10468000096848610C98FCF73FF909900C98C06DD7
:1046900000F01F013F2088400999886091E10C9843
:1046A0000168012042F60842C4F6020291420490D9
:1046B00000F0AA80FFE70C980168012042F61C4236
:1046C000C4F602029142049000F09E80FFE70C982D
:1046D0000168012042F63042C4F602029142049081
:1046E00000F09280FFE70C980168012042F64442F6
:1046F000C4F602029142049000F08680FFE70C9815
:104700000168012042F65842C4F602029142049028
:104710007AD0FFE70C980168012042F66C42C4F69B
:104720000202914204906FD0FFE70C9801680120CB
:1047300042F68042C4F602029142049064D0FFE740
:104740000C980168012042F69442C4F6020291429C
:10475000049059D0FFE70C980168012045F2084207
:10476000C5F60202914204904ED0FFE70C98016812
:10477000012045F21C42C5F602029142049043D04A
:10478000FFE70C980168012045F23042C5F60202AD
:104790009142049038D0FFE70C980168012045F25F
:1047A0004442C5F60202914204902DD0FFE70C98D6
:1047B0000168012045F25842C5F602029142049078
:1047C00022D0FFE70C980168012045F26C42C5F643
:1047D00002029142049017D0FFE70C980168012073
:1047E00045F28042C5F60202914204900CD0FFE7E8
:1047F0000C9800684AF66C31CAF2FD710844B0FAB0
:1048000080F040090490FFE70498C007002800F0FA
:10481000CC80FFE70C980168012045F20842C5F6FC
:104820000202914203904ED0FFE70C9801680120EC
:1048300045F21C42C5F602029142039043D0FFE7C5
:104840000C980168012045F23042C5F602029142FF
:10485000039038D0FFE70C980168012045F24442EC
:10486000C5F60202914203902DD0FFE70C98016833
:10487000012045F25842C5F602029142039022D02F
:10488000FFE70C980168012045F26C42C5F6020270
:104890009142039017D0FFE70C980168012045F280
:1048A0008042C5F60202914203900CD0FFE70C98BB
:1048B00000684AF66C31CAF2FD710844B0FA80F023
:1048C00040090390FFE70398C00780B1FFE70C9809
:1048D0004068122801D8FFE708E042F64600C0F61B
:1048E000010040F26B110CF07FFBFFE7FFE70C9932
:1048F000022081F83500FFE70C99002081F8340090
:10490000FFE70C98006800680B900B986FF310108D
:104910000B900C988068402803D1FFE7102002908C
:1049200008E00C9880688038B0FA80F04009800375
:104930000290FFE702980C99CA680B69D1F814C07D
:10494000D1F818E0CC694EEA040E4CEA0E0C43EAAA
:104950000C031A4340EAD200096A40EA11110B988D
:1049600008430B900B980C99096808600C9908682B
:104970004AF6F832CAF2FD7210444CF6CD42CCF63B
:10498000CC42A0FB02026FF0030000EA9200C8656F
:104990000C98FBF7B9FF08900C98C06D00F01F0150
:1049A00001208840089948600AE00C994020486539
:1049B0000C99032081F8350001208DF837004DE176
:1049C000FFE70C98016801201022C4F20202914214
:1049D000019000F00381FFE70C9801680120282274
:1049E000C4F202029142019000F0F880FFE70C98B7
:1049F000016801204022C4F202029142019000F0BD
:104A0000ED80FFE70C98016801205822C4F20202F1
:104A10009142019000F0E280FFE70C9801680120CC
:104A20007022C4F202029142019000F0D780FFE7A9
:104A30000C98016801208822C4F202029142019080
:104A400000F0CC80FFE70C9801680120A022C4F29E
:104A500002029142019000F0C180FFE70C980168CA
:104A60000120B822C4F202029142019000F0B68007
:104A7000FFE70C980168012040F21042C4F20202E4
:104A80009142019000F0AA80FFE70C980168012094
:104A900040F22842C4F202029142019000F09E804E
:104AA000FFE70C980168012040F24042C4F2020284
:104AB0009142019000F09280FFE70C98016801207C
:104AC00040F25842C4F202029142019000F0868006
:104AD000FFE70C980168012040F27042C4F2020224
:104AE000914201907AD0FFE70C980168012040F2D2
:104AF0008842C4F20202914201906FD0FFE70C9805
:104B00000168012040F2A042C4F2020291420190E9
:104B100064D0FFE70C980168012040F2B842C4F26B
:104B200002029142019059D0FFE70C9801680120E0
:104B300045F20842C5F60202914201904ED0FFE7CD
:104B40000C980168012045F21C42C5F60202914210
:104B5000019043D0FFE70C980168012045F23042F4
:104B6000C5F602029142019038D0FFE70C98016827
:104B7000012045F24442C5F60202914201902DD037
:104B8000FFE70C980168012045F25842C5F6020281
:104B90009142019022D0FFE70C980168012045F274
:104BA0006C42C5F602029142019017D0FFE70C98C3
:104BB0000168012045F28042C5F60202914201904F
:104BC0000CD0FFE70C9800684AF66C31CAF2FD7110
:104BD0000844B0FA80F040090190FFE70198C0074F
:104BE00090B3FFE70C98FBF777FF0C98806880285C
:104BF00004D1FFE70C9900204860FFE70C99087981
:104C0000096E08600C98416E806E48600C98406890
:104C100088B1FFE70C98406808280CD8FFE70C988B
:104C2000FCF716F80C98C16E002008600C98016F14
:104C3000406F486007E00C990020C8660C9908672F
:104C40000C994867FFE7FFE70C99002048650C9A2C
:104C5000012182F835108DF83700FFE79DF8370005
:104C60000EB010BD0000000080B588B00690059120
:104C70000492039300208DF80B00039828B1FFE7FE
:104C8000BDF80E0008B9FFE708E042F64600C0F69E
:104C9000010040F2AE210CF0A7F9FFE7069820B919
:104CA000FFE701208DF81F006CE3FFE7069890F8FE
:104CB0003400012804D1FFE702208DF81F0061E3D2
:104CC0000699012081F83400FFE7FFE7069890F885
:104CD0003500012840F04383FFE70699022081F860
:104CE0003500069900204865069800681021C4F236
:104CF0000201884200F08180FFE7069800682821C1
:104D0000C4F20201884278D0FFE70698006840218B
:104D1000C4F20201884270D0FFE70698006858216B
:104D2000C4F20201884268D0FFE70698006870214B
:104D3000C4F20201884260D0FFE70698006888212B
:104D4000C4F20201884258D0FFE706980068A0210B
:104D5000C4F20201884250D0FFE706980068B821EB
:104D6000C4F20201884248D0FFE70698006840F28A
:104D70001041C4F2020188423FD0FFE70698006864
:104D800040F22841C4F20201884236D0FFE706987B
:104D9000006840F24041C4F2020188422DD0FFE792
:104DA0000698006840F25841C4F20201884224D0BB
:104DB000FFE70698006840F27041C4F202018842A1
:104DC0001BD0FFE70698006840F28841C4F2020158
:104DD000884212D0FFE70698006840F2A041C4F272
:104DE0000201884209D0FFE70698006840F2B84106
:104DF000C4F20201884207D1FFE7069801680868FB
:104E000020F00100086006E006980168086820F0BC
:104E100001000860FFE706980599049A039BFCF7D8
:104E200027F80698016801201022C4F2020291427C
:104E3000019000F0A380FFE7069801680120282276
:104E4000C4F202029142019000F09880FFE70698B8
:104E5000016801204022C4F202029142019000F058
:104E60008D80FFE70698016801205822C4F20202F3
:104E70009142019000F08280FFE7069801680120CE
:104E80007022C4F202029142019077D0FFE70698A7
:104E9000016801208822C4F20202914201906DD083
:104EA000FFE7069801680120A022C4F202029142A5
:104EB000019063D0FFE7069801680120B822C4F290
:104EC00002029142019059D0FFE706980168012043
:104ED00040F21042C4F20202914201904ED0FFE72C
:104EE00006980168012040F22842C4F20202914271
:104EF000019043D0FFE706980168012040F240424C
:104F0000C4F202029142019038D0FFE7069801688E
:104F1000012040F25842C4F20202914201902DD089
:104F2000FFE706980168012040F27042C4F20202D5
:104F30009142019022D0FFE706980168012040F2DB
:104F40008842C4F202029142019017D0FFE706980E
:104F50000168012040F2A042C4F202029142019095
:104F60000CD0FFE7069800684FF64831CBF6FD718C
:104F70000844B0FA80F040090190FFE70198C007AB
:104F8000A8B1FFE70698006800680B2161F34400B0
:104F90000699096808600698006C38B1FFE7069822
:104FA0000168086840F008000860FFE714E0069810
:104FB00000680068052161F34300069909680860EC
:104FC0000698006C38B1FFE706980168086840F061
:104FD00004000860FFE7FFE706980168012010223F
:104FE000C4F202029142009000F00381FFE70698AC
:104FF000016801202822C4F202029142009000F0D0
:10500000F880FFE70698016801204022C4F20202FE
:105010009142009000F0ED80FFE7069801680120C2
:105020005822C4F202029142009000F0E280FFE7B1
:105030000698016801207022C4F202029142009099
:1050400000F0D780FFE70698016801208822C4F2AB
:1050500002029142009000F0CC80FFE706980168C0
:105060000120A022C4F202029142009000F0C1800F
:10507000FFE7069801680120B822C4F202029142BB
:10508000009000F0B680FFE706980168012040F22A
:105090001042C4F202029142009000F0AA80FFE7A1
:1050A00006980168012040F22842C4F202029142AF
:1050B000009000F09E80FFE706980168012040F212
:1050C0004042C4F202029142009000F09280FFE759
:1050D00006980168012040F25842C4F2020291424F
:1050E000009000F08680FFE706980168012040F2FA
:1050F0007042C4F20202914200907AD0FFE7069813
:105100000168012040F28842C4F2020291420090FC
:105110006FD0FFE706980168012040F2A042C4F278
:1051200002029142009064D0FFE7069801680120D6
:1051300040F2B842C4F202029142009059D0FFE717
:1051400006980168012045F20842C5F60202914224
:1051500000904ED0FFE706980168012045F21C42FE
:10516000C5F602029142009043D0FFE7069801681D
:10517000012045F23042C5F602029142009038D03B
:10518000FFE706980168012045F24442C5F6020295
:10519000914200902DD0FFE706980168012045F26A
:1051A0005842C5F602029142009022D0FFE70698CD
:1051B0000168012045F26C42C5F60202914200905E
:1051C00017D0FFE706980168012045F28042C5F636
:1051D0000202914200900CD0FFE7069800684AF660
:1051E0006C31CAF2FD710844B0FA80F040090090B9
:1051F000FFE70098C007D0B1FFE70698006E00688F
:10520000C003002807D5FFE70698016E086840F440
:1052100080700860FFE70698C06E38B1FFE7069817
:10522000C16E086840F480700860FFE7FFE70698E9
:1052300000681021C4F20201884200F08180FFE77B
:10524000069800682821C4F20201884278D0FFE75E
:10525000069800684021C4F20201884270D0FFE73E
:10526000069800685821C4F20201884268D0FFE71E
:10527000069800687021C4F20201884260D0FFE7FE
:10528000069800688821C4F20201884258D0FFE7DE
:1052900006980068A021C4F20201884250D0FFE7BE
:1052A00006980068B821C4F20201884248D0FFE79E
:1052B0000698006840F21041C4F2020188423FD0D3
:1052C000FFE70698006840F22841C4F202018842D4
:1052D00036D0FFE70698006840F24041C4F2020170
:1052E00088422DD0FFE70698006840F25841C4F28A
:1052F0000201884224D0FFE70698006840F270411E
:10530000C4F2020188421BD0FFE70698006840F211
:105310008841C4F20201884212D0FFE70698006873
:1053200040F2A041C4F20201884209D0FFE706988A
:10533000006840F2B841C4F20201884207D1FFE799
:1053400006980168086840F00100086006E00698C9
:105350000168086840F001000860FFE70DE0069969
:105360004FF400604865FFE70699002081F834009B
:10537000FFE701208DF80B00FFE79DF80B008DF88B
:105380001F00FFE79DF81F0008B080BD000000006F
:1053900080B584B0039000F0EBFB0290039801907D
:1053A0000198013048B1FFE740F20800C2F2000066
:1053B0000178019808440190FFE7FFE700F0D8FB6F
:1053C0000299401A0199884201D2FFE7F6E704B03A
:1053D00080BD00000000000081B0ADF80200BDF803
:1053E0000200022801D1FFE7FFE701B0704700008B
:1053F00080B582B0ADF806008820C5F600000068D0
:10540000BDF8061008420BD0FFE7BDF80600882162
:10541000C5F600010860BDF80600FFF7DDFFFFE7F5
:1054200002B080BD0000000080B590B00F900E91DA
:1054300000200D908020C5F600000A900F980021F2
:10544000C5F60201884250D0FFE70F9840F20041B4
:10545000C5F60201884248D0FFE70F9840F60001E8
:10546000C5F60201884240D0FFE70F9840F60041A0
:10547000C5F60201884238D0FFE70F9841F20001DB
:10548000C5F60201884230D0FFE70F9841F2004193
:10549000C5F60201884228D0FFE70F9841F60001C7
:1054A000C5F60201884220D0FFE70F9841F600417F
:1054B000C5F60201884218D0FFE70F9842F20001BA
:1054C000C5F60201884210D0FFE70F9842F2004172
:1054D000C5F60201884208D0FFE70F9842F60001A6
:1054E000C5F60201884201D1FFE707E042F6DE007F
:1054F000C0F60100B3210BF077FDFFE70E9800889E
:1055000028B1FFE70E98408808B9FFE707E042F6A8
:10551000DE00C0F60100B4210BF066FDFFE70E9837
:105520004068E8B3FFE70E984068012838D0FFE7ED
:105530000E984068112833D0FFE70E984068022883
:105540002ED0FFE70E984068122829D0FFE70E986A
:105550004068B0F5881F23D0FFE70E984068B0F58B
:10556000041F1DD0FFE70E984068B0F5441F17D008
:10557000FFE70E984068B0F5901F11D0FFE70E9836
:105580004068B0F5081F0BD0FFE70E984068B0F5F3
:10559000481F05D0FFE70E984068032801D1FFE7B8
:1055A00007E042F6DE00C0F60100B5210BF01CFD5D
:1055B000FFE7FFE70E9800680D99C840002800F04B
:1055C0007182FFE70E9800680D9A01219140084012
:1055D0000C900C98002800F06182FFE70E9840685C
:1055E00000F00300012807D0FFE70E98406800F0A4
:1055F000030002284BD1FFE70E98C06878B1FFE79F
:105600000E98C06801280AD0FFE70E98C0680228EB
:1056100005D0FFE70E98C068032801D1FFE707E037
:1056200042F6DE00C0F60100C4210BF0DDFCFFE70E
:105630000F9880680B900D984100032000FA01F14B
:105640000B9888430B900E98C0680D99490000FA9A
:1056500001F10B9808430B900B980F9988600F98F5
:1056600040680B900D99012000FA01F10B988843D6
:105670000B900E984068C0F300100D9900FA01F1EC
:105680000B9808430B900B980F994860FFE70E9812
:10569000406800F0030003282FD0FFE70E988068D1
:1056A00050B1FFE70E988068012805D0FFE70E98FB
:1056B0008068022801D1FFE707E042F6DE00C0F66D
:1056C0000100D6210BF090FCFFE70F98C0680B900B
:1056D0000D984100032000FA01F10B9888430B90CC
:1056E0000E9880680D99490000FA01F10B98084363
:1056F0000B900B980F99C860FFE70E98406800F078
:105700000300022840F09580FFE70F980021C5F6BE
:105710000201884250D0FFE70F9840F20041C5F6E1
:105720000201884248D0FFE70F9840F60001C5F615
:105730000201884240D0FFE70F9840F60041C5F6CD
:105740000201884238D0FFE70F9841F20001C5F608
:105750000201884230D0FFE70F9841F20041C5F6C0
:105760000201884228D0FFE70F9841F60001C5F6F4
:105770000201884220D0FFE70F9841F60041C5F6AC
:105780000201884218D0FFE70F9842F20001C5F6E7
:105790000201884210D0FFE70F9842F20041C5F69F
:1057A0000201884208D0FFE70F9842F60001C5F6D3
:1057B0000201884201D1FFE707E042F6DE00C0F6B1
:1057C0000100E3210BF010FCFFE70E9800690F28A1
:1057D00001D8FFE707E042F6DE00C0F60100E42151
:1057E0000BF002FCFFE70F980D996FF0030202EA3D
:1057F00051010844006A0B900D9800F007008100E9
:105800000F2000FA01F10B9888430B900E98006965
:105810000D9901F00701890000FA01F10B98084386
:105820000B900B980F990D9B02EA530211440862EA
:10583000FFE70F9800680B900D984100032000FAD5
:1058400001F10B9888430B900E98406800F003001C
:105850000D99490000FA01F10B9808430B900B9841
:105860000F9908600E9880798007002800F0158154
:10587000FFE7FFE744F25450C5F60200016841F02B
:1058800002010160006800F0020009900998FFE73A
:105890000D9820F0030040F20841C5F60001405881
:1058A0000B900D9800F0030081000F2000FA01F129
:1058B0000B9888430B900F980021C5F6020188428F
:1058C00003D1FFE7002008907AE00F9840F20041F2
:1058D000C5F60201884203D1FFE7012007906CE082
:1058E0000F9840F60001C5F60201884203D1FFE798
:1058F000022006905EE00F9840F60041C5F60201D6
:10590000884203D1FFE70320059050E00F9841F251
:105910000001C5F60201884203D1FFE7042004908C
:1059200042E00F9841F20041C5F60201884203D1DE
:10593000FFE70520039034E00F9841F60001C5F61B
:105940000201884203D1FFE70620029026E00F986B
:1059500041F60041C5F60201884203D1FFE7072066
:10596000019018E00F9842F20001C5F6020188424A
:1059700003D1FFE7082000900AE00F9942F20042AD
:10598000C5F602020A20914208BF09200090FFE7F5
:1059900000980190FFE701980290FFE702980390BA
:1059A000FFE703980490FFE704980590FFE7059848
:1059B0000690FFE706980790FFE707980890FFE733
:1059C00008980D9901F00301890000FA01F10B9884
:1059D00008430B900B980D9921F0030140F2084207
:1059E000C5F6000288504FF0B04000680B900C994B
:1059F0000B9888430B900E988079C006002805D537
:105A0000FFE70C990B9808430B90FFE70B984FF0BA
:105A1000B04108600420C5F6000000680B900C99A6
:105A20000B9888430B900E9880798006002805D546
:105A3000FFE70C990B9808430B90FFE70B980421A4
:105A4000C5F6000108600A9840680B900C990B9805
:105A500088430B900E9880798007002805D5FFE7D2
:105A60000C990B9808430B90FFE70B980A99486034
:105A70000A9800680B900C990B9888430B900E982D
:105A80008079C00728B1FFE70C990B9808430B9069
:105A9000FFE70B980A990860FFE7FFE70D980130D0
:105AA0000D9087E510B080BD80B584B00390ADF84F
:105AB0000A10BDF80A0020B1FFE7002008B9FFE78F
:105AC00008E042F6DE00C0F601004FF4E1710BF091
:105AD0008BFAFFE7039840690190019ABDF80A002C
